{
  "_format": "hh-sol-artifact-1",
  "contractName": "BikeCollection",
  "sourceName": "contracts/BikeCollection.sol",
  "abi": [
    {
      "inputs": [
        {
          "internalType": "string",
          "name": "brand",
          "type": "string"
        },
        {
          "internalType": "string",
          "name": "symbol",
          "type": "string"
        }
      ],
      "stateMutability": "nonpayable",
      "type": "constructor"
    },
    {
      "anonymous": false,
      "inputs": [
        {
          "indexed": true,
          "internalType": "address",
          "name": "owner",
          "type": "address"
        },
        {
          "indexed": true,
          "internalType": "address",
          "name": "approved",
          "type": "address"
        },
        {
          "indexed": true,
          "internalType": "uint256",
          "name": "tokenId",
          "type": "uint256"
        }
      ],
      "name": "Approval",
      "type": "event"
    },
    {
      "anonymous": false,
      "inputs": [
        {
          "indexed": true,
          "internalType": "address",
          "name": "owner",
          "type": "address"
        },
        {
          "indexed": true,
          "internalType": "address",
          "name": "operator",
          "type": "address"
        },
        {
          "indexed": false,
          "internalType": "bool",
          "name": "approved",
          "type": "bool"
        }
      ],
      "name": "ApprovalForAll",
      "type": "event"
    },
    {
      "anonymous": false,
      "inputs": [
        {
          "indexed": true,
          "internalType": "address",
          "name": "_address",
          "type": "address"
        },
        {
          "indexed": false,
          "internalType": "string",
          "name": "status",
          "type": "string"
        }
      ],
      "name": "AuthorizedMaintenance",
      "type": "event"
    },
    {
      "anonymous": false,
      "inputs": [
        {
          "indexed": true,
          "internalType": "uint256",
          "name": "SaleId",
          "type": "uint256"
        },
        {
          "indexed": false,
          "internalType": "string",
          "name": "sale",
          "type": "string"
        },
        {
          "indexed": false,
          "internalType": "uint256",
          "name": "dateUpForSale",
          "type": "uint256"
        }
      ],
      "name": "BikeOnSale",
      "type": "event"
    },
    {
      "anonymous": false,
      "inputs": [
        {
          "indexed": true,
          "internalType": "uint256",
          "name": "Onserviceid",
          "type": "uint256"
        },
        {
          "indexed": false,
          "internalType": "string",
          "name": "status",
          "type": "string"
        }
      ],
      "name": "BikeOnService",
      "type": "event"
    },
    {
      "anonymous": false,
      "inputs": [
        {
          "indexed": true,
          "internalType": "uint256",
          "name": "id",
          "type": "uint256"
        },
        {
          "indexed": true,
          "internalType": "address",
          "name": "_address",
          "type": "address"
        }
      ],
      "name": "BikeSold",
      "type": "event"
    },
    {
      "anonymous": false,
      "inputs": [
        {
          "indexed": true,
          "internalType": "uint256",
          "name": "trServiceId",
          "type": "uint256"
        },
        {
          "indexed": true,
          "internalType": "string",
          "name": "serial",
          "type": "string"
        },
        {
          "indexed": false,
          "internalType": "string",
          "name": "status",
          "type": "string"
        }
      ],
      "name": "BikeTransferedService",
      "type": "event"
    },
    {
      "anonymous": false,
      "inputs": [
        {
          "indexed": true,
          "internalType": "uint256",
          "name": "grId",
          "type": "uint256"
        },
        {
          "indexed": false,
          "internalType": "uint16",
          "name": "amount",
          "type": "uint16"
        },
        {
          "components": [
            {
              "internalType": "uint256",
              "name": "BikeId",
              "type": "uint256"
            },
            {
              "internalType": "string",
              "name": "brand",
              "type": "string"
            },
            {
              "internalType": "string",
              "name": "model",
              "type": "string"
            },
            {
              "internalType": "string",
              "name": "typeOf",
              "type": "string"
            },
            {
              "internalType": "string",
              "name": "color",
              "type": "string"
            },
            {
              "internalType": "string",
              "name": "description",
              "type": "string"
            },
            {
              "internalType": "string",
              "name": "image",
              "type": "string"
            },
            {
              "internalType": "uint16",
              "name": "buildYear",
              "type": "uint16"
            },
            {
              "internalType": "uint256",
              "name": "firstPurchaseDate",
              "type": "uint256"
            },
            {
              "internalType": "string",
              "name": "serialNumber",
              "type": "string"
            },
            {
              "internalType": "enum BikeCollection.Status",
              "name": "status",
              "type": "uint8"
            }
          ],
          "indexed": false,
          "internalType": "struct BikeCollection.Bike",
          "name": "template",
          "type": "tuple"
        }
      ],
      "name": "GroupCreated",
      "type": "event"
    },
    {
      "anonymous": false,
      "inputs": [
        {
          "indexed": true,
          "internalType": "uint256",
          "name": "grUpId",
          "type": "uint256"
        },
        {
          "indexed": false,
          "internalType": "uint256",
          "name": "amount",
          "type": "uint256"
        }
      ],
      "name": "GroupUpdated",
      "type": "event"
    },
    {
      "anonymous": false,
      "inputs": [
        {
          "indexed": true,
          "internalType": "uint256",
          "name": "MntnId",
          "type": "uint256"
        },
        {
          "indexed": false,
          "internalType": "string",
          "name": "store",
          "type": "string"
        },
        {
          "indexed": false,
          "internalType": "string",
          "name": "commentar",
          "type": "string"
        },
        {
          "indexed": false,
          "internalType": "uint256",
          "name": "maintenanceDate",
          "type": "uint256"
        }
      ],
      "name": "MaintenanceDone",
      "type": "event"
    },
    {
      "anonymous": false,
      "inputs": [
        {
          "indexed": true,
          "internalType": "address",
          "name": "previousOwner",
          "type": "address"
        },
        {
          "indexed": true,
          "internalType": "address",
          "name": "newOwner",
          "type": "address"
        }
      ],
      "name": "OwnershipTransferred",
      "type": "event"
    },
    {
      "anonymous": false,
      "inputs": [
        {
          "indexed": true,
          "internalType": "uint256",
          "name": "StlnId",
          "type": "uint256"
        },
        {
          "indexed": false,
          "internalType": "string",
          "name": "stolen",
          "type": "string"
        }
      ],
      "name": "StolenBike",
      "type": "event"
    },
    {
      "anonymous": false,
      "inputs": [
        {
          "indexed": true,
          "internalType": "address",
          "name": "from",
          "type": "address"
        },
        {
          "indexed": true,
          "internalType": "address",
          "name": "to",
          "type": "address"
        },
        {
          "indexed": true,
          "internalType": "uint256",
          "name": "tokenId",
          "type": "uint256"
        }
      ],
      "name": "Transfer",
      "type": "event"
    },
    {
      "inputs": [
        {
          "internalType": "address",
          "name": "to",
          "type": "address"
        },
        {
          "internalType": "uint256",
          "name": "tokenId",
          "type": "uint256"
        }
      ],
      "name": "approve",
      "outputs": [],
      "stateMutability": "nonpayable",
      "type": "function"
    },
    {
      "inputs": [
        {
          "internalType": "address",
          "name": "owner",
          "type": "address"
        }
      ],
      "name": "balanceOf",
      "outputs": [
        {
          "internalType": "uint256",
          "name": "",
          "type": "uint256"
        }
      ],
      "stateMutability": "view",
      "type": "function"
    },
    {
      "inputs": [
        {
          "internalType": "uint16",
          "name": "amount",
          "type": "uint16"
        },
        {
          "internalType": "string",
          "name": "brand",
          "type": "string"
        },
        {
          "internalType": "string",
          "name": "model",
          "type": "string"
        },
        {
          "internalType": "string",
          "name": "typeOf",
          "type": "string"
        },
        {
          "internalType": "string",
          "name": "color",
          "type": "string"
        },
        {
          "internalType": "string",
          "name": "description",
          "type": "string"
        },
        {
          "internalType": "string",
          "name": "image",
          "type": "string"
        },
        {
          "internalType": "uint16",
          "name": "buildYear",
          "type": "uint16"
        }
      ],
      "name": "batchMint",
      "outputs": [],
      "stateMutability": "nonpayable",
      "type": "function"
    },
    {
      "inputs": [
        {
          "internalType": "address",
          "name": "from",
          "type": "address"
        },
        {
          "internalType": "address",
          "name": "to",
          "type": "address"
        },
        {
          "internalType": "uint256",
          "name": "groupId",
          "type": "uint256"
        },
        {
          "internalType": "uint16",
          "name": "amount",
          "type": "uint16"
        }
      ],
      "name": "batchTransferForSale",
      "outputs": [],
      "stateMutability": "nonpayable",
      "type": "function"
    },
    {
      "inputs": [
        {
          "internalType": "uint256",
          "name": "tokenId",
          "type": "uint256"
        }
      ],
      "name": "getApproved",
      "outputs": [
        {
          "internalType": "address",
          "name": "",
          "type": "address"
        }
      ],
      "stateMutability": "view",
      "type": "function"
    },
    {
      "inputs": [
        {
          "internalType": "uint256",
          "name": "tokenId",
          "type": "uint256"
        }
      ],
      "name": "getBike",
      "outputs": [
        {
          "components": [
            {
              "internalType": "uint256",
              "name": "BikeId",
              "type": "uint256"
            },
            {
              "internalType": "string",
              "name": "brand",
              "type": "string"
            },
            {
              "internalType": "string",
              "name": "model",
              "type": "string"
            },
            {
              "internalType": "string",
              "name": "typeOf",
              "type": "string"
            },
            {
              "internalType": "string",
              "name": "color",
              "type": "string"
            },
            {
              "internalType": "string",
              "name": "description",
              "type": "string"
            },
            {
              "internalType": "string",
              "name": "image",
              "type": "string"
            },
            {
              "internalType": "uint16",
              "name": "buildYear",
              "type": "uint16"
            },
            {
              "internalType": "uint256",
              "name": "firstPurchaseDate",
              "type": "uint256"
            },
            {
              "internalType": "string",
              "name": "serialNumber",
              "type": "string"
            },
            {
              "internalType": "enum BikeCollection.Status",
              "name": "status",
              "type": "uint8"
            }
          ],
          "internalType": "struct BikeCollection.Bike",
          "name": "",
          "type": "tuple"
        }
      ],
      "stateMutability": "view",
      "type": "function"
    },
    {
      "inputs": [
        {
          "internalType": "uint256",
          "name": "groupId",
          "type": "uint256"
        }
      ],
      "name": "getGroupAmount",
      "outputs": [
        {
          "internalType": "uint256",
          "name": "",
          "type": "uint256"
        }
      ],
      "stateMutability": "view",
      "type": "function"
    },
    {
      "inputs": [],
      "name": "getGroupsAmount",
      "outputs": [
        {
          "internalType": "uint256",
          "name": "",
          "type": "uint256"
        }
      ],
      "stateMutability": "view",
      "type": "function"
    },
    {
      "inputs": [
        {
          "internalType": "uint256",
          "name": "tokenId",
          "type": "uint256"
        }
      ],
      "name": "getRealisedMaintenance",
      "outputs": [
        {
          "components": [
            {
              "internalType": "string",
              "name": "store",
              "type": "string"
            },
            {
              "internalType": "string",
              "name": "commentar",
              "type": "string"
            },
            {
              "internalType": "uint256",
              "name": "maintenanceDate",
              "type": "uint256"
            },
            {
              "internalType": "address",
              "name": "mainteneur",
              "type": "address"
            }
          ],
          "internalType": "struct BikeCollection.MaintenanceBook[]",
          "name": "",
          "type": "tuple[]"
        }
      ],
      "stateMutability": "view",
      "type": "function"
    },
    {
      "inputs": [
        {
          "internalType": "address",
          "name": "owner",
          "type": "address"
        },
        {
          "internalType": "address",
          "name": "operator",
          "type": "address"
        }
      ],
      "name": "isApprovedForAll",
      "outputs": [
        {
          "internalType": "bool",
          "name": "",
          "type": "bool"
        }
      ],
      "stateMutability": "view",
      "type": "function"
    },
    {
      "inputs": [
        {
          "internalType": "uint256",
          "name": "",
          "type": "uint256"
        }
      ],
      "name": "maintenance",
      "outputs": [
        {
          "internalType": "string",
          "name": "store",
          "type": "string"
        },
        {
          "internalType": "string",
          "name": "commentar",
          "type": "string"
        },
        {
          "internalType": "uint256",
          "name": "maintenanceDate",
          "type": "uint256"
        },
        {
          "internalType": "address",
          "name": "mainteneur",
          "type": "address"
        }
      ],
      "stateMutability": "view",
      "type": "function"
    },
    {
      "inputs": [],
      "name": "name",
      "outputs": [
        {
          "internalType": "string",
          "name": "",
          "type": "string"
        }
      ],
      "stateMutability": "view",
      "type": "function"
    },
    {
      "inputs": [],
      "name": "owner",
      "outputs": [
        {
          "internalType": "address",
          "name": "",
          "type": "address"
        }
      ],
      "stateMutability": "view",
      "type": "function"
    },
    {
      "inputs": [
        {
          "internalType": "uint256",
          "name": "tokenId",
          "type": "uint256"
        }
      ],
      "name": "ownerOf",
      "outputs": [
        {
          "internalType": "address",
          "name": "",
          "type": "address"
        }
      ],
      "stateMutability": "view",
      "type": "function"
    },
    {
      "inputs": [],
      "name": "renounceOwnership",
      "outputs": [],
      "stateMutability": "nonpayable",
      "type": "function"
    },
    {
      "inputs": [
        {
          "internalType": "address",
          "name": "from",
          "type": "address"
        },
        {
          "internalType": "address",
          "name": "to",
          "type": "address"
        },
        {
          "internalType": "uint256",
          "name": "tokenId",
          "type": "uint256"
        }
      ],
      "name": "safeTransferFrom",
      "outputs": [],
      "stateMutability": "nonpayable",
      "type": "function"
    },
    {
      "inputs": [
        {
          "internalType": "address",
          "name": "from",
          "type": "address"
        },
        {
          "internalType": "address",
          "name": "to",
          "type": "address"
        },
        {
          "internalType": "uint256",
          "name": "tokenId",
          "type": "uint256"
        },
        {
          "internalType": "bytes",
          "name": "data",
          "type": "bytes"
        }
      ],
      "name": "safeTransferFrom",
      "outputs": [],
      "stateMutability": "nonpayable",
      "type": "function"
    },
    {
      "inputs": [
        {
          "internalType": "address",
          "name": "operator",
          "type": "address"
        },
        {
          "internalType": "bool",
          "name": "approved",
          "type": "bool"
        }
      ],
      "name": "setApprovalForAll",
      "outputs": [],
      "stateMutability": "nonpayable",
      "type": "function"
    },
    {
      "inputs": [
        {
          "internalType": "uint256",
          "name": "tokenId",
          "type": "uint256"
        }
      ],
      "name": "setInService",
      "outputs": [],
      "stateMutability": "nonpayable",
      "type": "function"
    },
    {
      "inputs": [
        {
          "internalType": "uint256",
          "name": "tokenId",
          "type": "uint256"
        },
        {
          "internalType": "string",
          "name": "_store",
          "type": "string"
        },
        {
          "internalType": "string",
          "name": "_commentar",
          "type": "string"
        },
        {
          "internalType": "uint256",
          "name": "_maintenanceDate",
          "type": "uint256"
        },
        {
          "internalType": "address",
          "name": "_mainteneur",
          "type": "address"
        }
      ],
      "name": "setMaintenance",
      "outputs": [],
      "stateMutability": "nonpayable",
      "type": "function"
    },
    {
      "inputs": [
        {
          "internalType": "uint256",
          "name": "tokenId",
          "type": "uint256"
        },
        {
          "internalType": "address",
          "name": "maintaddr",
          "type": "address"
        }
      ],
      "name": "setMaintenanceStatus",
      "outputs": [],
      "stateMutability": "nonpayable",
      "type": "function"
    },
    {
      "inputs": [
        {
          "internalType": "uint256",
          "name": "tokenId",
          "type": "uint256"
        },
        {
          "internalType": "uint256",
          "name": "dateUpForSale",
          "type": "uint256"
        }
      ],
      "name": "setOnSale",
      "outputs": [],
      "stateMutability": "nonpayable",
      "type": "function"
    },
    {
      "inputs": [
        {
          "internalType": "uint256",
          "name": "tokenId",
          "type": "uint256"
        }
      ],
      "name": "setStolen",
      "outputs": [],
      "stateMutability": "nonpayable",
      "type": "function"
    },
    {
      "inputs": [
        {
          "internalType": "bytes4",
          "name": "interfaceId",
          "type": "bytes4"
        }
      ],
      "name": "supportsInterface",
      "outputs": [
        {
          "internalType": "bool",
          "name": "",
          "type": "bool"
        }
      ],
      "stateMutability": "view",
      "type": "function"
    },
    {
      "inputs": [],
      "name": "symbol",
      "outputs": [
        {
          "internalType": "string",
          "name": "",
          "type": "string"
        }
      ],
      "stateMutability": "view",
      "type": "function"
    },
    {
      "inputs": [
        {
          "internalType": "uint256",
          "name": "index",
          "type": "uint256"
        }
      ],
      "name": "tokenByIndex",
      "outputs": [
        {
          "internalType": "uint256",
          "name": "",
          "type": "uint256"
        }
      ],
      "stateMutability": "view",
      "type": "function"
    },
    {
      "inputs": [
        {
          "internalType": "address",
          "name": "owner",
          "type": "address"
        },
        {
          "internalType": "uint256",
          "name": "index",
          "type": "uint256"
        }
      ],
      "name": "tokenOfOwnerByIndex",
      "outputs": [
        {
          "internalType": "uint256",
          "name": "",
          "type": "uint256"
        }
      ],
      "stateMutability": "view",
      "type": "function"
    },
    {
      "inputs": [
        {
          "internalType": "uint256",
          "name": "tokenId",
          "type": "uint256"
        }
      ],
      "name": "tokenURI",
      "outputs": [
        {
          "internalType": "string",
          "name": "",
          "type": "string"
        }
      ],
      "stateMutability": "view",
      "type": "function"
    },
    {
      "inputs": [],
      "name": "totalSupply",
      "outputs": [
        {
          "internalType": "uint256",
          "name": "",
          "type": "uint256"
        }
      ],
      "stateMutability": "view",
      "type": "function"
    },
    {
      "inputs": [
        {
          "internalType": "address",
          "name": "from",
          "type": "address"
        },
        {
          "internalType": "address",
          "name": "to",
          "type": "address"
        },
        {
          "internalType": "uint256",
          "name": "tokenId",
          "type": "uint256"
        },
        {
          "internalType": "string",
          "name": "serialNumber",
          "type": "string"
        },
        {
          "internalType": "uint256",
          "name": "firstPurchaseDate",
          "type": "uint256"
        }
      ],
      "name": "transferForService",
      "outputs": [],
      "stateMutability": "nonpayable",
      "type": "function"
    },
    {
      "inputs": [
        {
          "internalType": "address",
          "name": "from",
          "type": "address"
        },
        {
          "internalType": "address",
          "name": "to",
          "type": "address"
        },
        {
          "internalType": "uint256",
          "name": "tokenId",
          "type": "uint256"
        }
      ],
      "name": "transferFrom",
      "outputs": [],
      "stateMutability": "nonpayable",
      "type": "function"
    },
    {
      "inputs": [
        {
          "internalType": "address",
          "name": "newOwner",
          "type": "address"
        }
      ],
      "name": "transferOwnership",
      "outputs": [],
      "stateMutability": "nonpayable",
      "type": "function"
    }
  ],
  "bytecode": "0x608060405234620003635762004b11803803806200001d8162000368565b9283398101604082820312620003635781516001600160401b0392908381116200036357826200004f9183016200038e565b906020928382015185811162000363576200006b92016200038e565b9281518181116200034d576000938454916001948584811c9416801562000342575b838510146200032e578190601f94858111620002db575b508390858311600114620002775788926200026b575b5050600019600383901b1c191690851b1785555b8551928311620002575783548481811c911680156200024c575b828210146200023857828111620001f0575b50809183116001146200018a57508394829394926200017e575b5050600019600383901b1c191690821b1790555b600a8054336001600160a01b031982168117909255604051926001600160a01b03909116907f8be0079c531659141344cd1fd0a4f28419497f9722a3daafe3b4186f6b6457e09080a36147109081620004018239f35b01519050388062000114565b90601f198316958486528286209286905b888210620001d85750508385969710620001be575b505050811b01905562000128565b015160001960f88460031b161c19169055388080620001b0565b8087859682949686015181550195019301906200019b565b8486528186208380860160051c8201928487106200022e575b0160051c019085905b82811062000222575050620000fa565b87815501859062000212565b9250819262000209565b634e487b7160e01b86526022600452602486fd5b90607f1690620000e8565b634e487b7160e01b85526041600452602485fd5b015190503880620000ba565b8880528489208894509190601f1984168a5b87828210620002c45750508411620002aa575b505050811b018555620000ce565b015160001960f88460031b161c191690553880806200029c565b8385015186558b9790950194938401930162000289565b9091508780528388208580850160051c82019286861062000324575b918991869594930160051c01915b82811062000315575050620000a4565b8a815585945089910162000305565b92508192620002f7565b634e487b7160e01b87526022600452602487fd5b93607f16936200008d565b634e487b7160e01b600052604160045260246000fd5b600080fd5b6040519190601f01601f191682016001600160401b038111838210176200034d57604052565b919080601f84011215620003635782516001600160401b0381116200034d57602090620003c4601f8201601f1916830162000368565b92818452828287010111620003635760005b818110620003ec57508260009394955001015290565b8581018301518482018401528201620003d656fe6101a080604052600436101561001457600080fd5b60003560e01c90816301ffc9a7146132295750806306fdde0314613186578063081812fc14613168578063095ea7b314612fd45780630b8d27c314612e8d57806318160ddd14612e6f57806323b872dd14612e4b5780632f745c5914612d8757806342842e0e14612d65578063478646f714612c295780634f6ccce714612b885780634f95481b146128585780636352211e1461282957806363e4ab331461267a578063695c96bf146124dc57806370a08231146124b1578063715018a6146124565780638da5cb5b1461242f578063930318891461240357806394b3bcc9146122f857806395d89b4114612219578063a22cb46514612148578063a2cdf7831461212a578063a45728d314611fe8578063aafbbe0314611e50578063b88d4fde14611dcd578063c87b56dd146114fb578063e985e9c5146114a4578063f2df16b514610ed9578063f2fde38b14610e01578063fbca6ba614610cdd5763fe6d49091461018057600080fd5b34610cd857610100366003190112610cd857600435806101805261ffff811603610cd85760243567ffffffffffffffff8111610cd8576101c49036906004016133d4565b60e05260443567ffffffffffffffff8111610cd8576101e79036906004016133d4565b909160643567ffffffffffffffff8111610cd8576102099036906004016133d4565b91909360843567ffffffffffffffff8111610cd85761022c9036906004016133d4565b91906101205260a43567ffffffffffffffff8111610cd8576102529036906004016133d4565b60a0526101405267ffffffffffffffff60c43511610cd8576102793660c4356004016133d4565b610100526101605260e4359161ffff83168303610cd85761029b969596613a5c565b6001600c54018060c052600c5560009633155b61ffff6101805116891015610bd8576102c5613a5c565b600b9060018254018092556102df60405180608052613509565b600060805152610b955761031261030c8260005260026020526001600160a01b0360406000205416151590565b15614416565b60085481600052600960205260406000205561032d8161371e565b60009861033933613d94565b3360005260066020526040600020816000526020528260406000205582600052600760205260406000205561038761030c8360005260026020526001600160a01b0360406000205416151590565b3360005260036020526040600020600181540190558160005260026020526040600020336001600160a01b0319825416179055813360007fddf252ad1be2c89b69c2b068fc378daa952ba7f163c4a11628f55a4df523b3ef8180a46103f76103f260805184336144d2565b614336565b604051610403816134ec565b8281526104133660e0518a61359b565b602082015261042336858861359b565b6040820152610433368a8c61359b565b606082015261044636866101205161359b565b608082015261045b3660a0516101405161359b565b60a082015261047136610100516101605161359b565b60c082015261ffff871660e0820152600061010082015260405161049481613509565b60008152610120820152600061014082015282600052600f60205260406000209080518255602081015180519067ffffffffffffffff82116108015781906104ec826104e360018801546135f0565b60018801613754565b602090601f8311600114610b2357600092610b18575b50508160011b916000199060031b1c19161760018301555b604081015180519067ffffffffffffffff821161080157819061054d8261054460028801546135f0565b60028801613754565b602090601f8311600114610aa657600092610a9b575b50508160011b916000199060031b1c19161760028301555b606081015180519067ffffffffffffffff82116108015781906105ae826105a560038801546135f0565b60038801613754565b602090601f8311600114610a2957600092610a1e575b50508160011b916000199060031b1c19161760038301555b608081015180519067ffffffffffffffff821161080157819061060f8261060660048801546135f0565b60048801613754565b602090601f83116001146109ac576000926109a1575b50508160011b916000199060031b1c19161760048301555b60a081015180519067ffffffffffffffff82116108015781906106708261066760058801546135f0565b60058801613754565b602090601f831160011461092f57600092610924575b50508160011b916000199060031b1c19161760058301555b60c081015180519067ffffffffffffffff82116108015781906106d1826106c860068801546135f0565b60068801613754565b602090601f83116001146108b2576000926108a7575b50508160011b916000199060031b1c19161760068301555b6007820161ffff60e08301511661ffff198254161790556101008101516008830155610120810151805167ffffffffffffffff81116108015760098401916107518261074b85546135f0565b85613754565b602090601f831160011461083857610140949392916000918361082d575b50508160011b916000199060031b1c19161790555b015190600682101561081757600a019060ff8019835416911617905560c051600052601060205260406000209182549068010000000000000000821015610801576107db826107fb9560016107f695018155613706565b90919082549060031b600019811b9283911b16911916179055565b6136c0565b976102ae565b634e487b7160e01b600052604160045260246000fd5b634e487b7160e01b600052602160045260246000fd5b01519050388061076f565b908360005260206000209160005b601f198516811061088f5750918391600193610140979695601f19811610610876575b505050811b019055610784565b015160001960f88460031b161c19169055388080610869565b91926020600181928685015181550194019201610846565b0151905038806106e7565b9250600685016000526020600020906000935b601f1984168510610909576001945083601f198116106108f0575b505050811b0160068301556106ff565b015160001960f88460031b161c191690553880806108e0565b818101518355602094850194600190930192909101906108c5565b015190503880610686565b9250600585016000526020600020906000935b601f1984168510610986576001945083601f1981161061096d575b505050811b01600583015561069e565b015160001960f88460031b161c1916905538808061095d565b81810151835560209485019460019093019290910190610942565b015190503880610625565b9250600485016000526020600020906000935b601f1984168510610a03576001945083601f198116106109ea575b505050811b01600483015561063d565b015160001960f88460031b161c191690553880806109da565b818101518355602094850194600190930192909101906109bf565b0151905038806105c4565b9250600385016000526020600020906000935b601f1984168510610a80576001945083601f19811610610a67575b505050811b0160038301556105dc565b015160001960f88460031b161c19169055388080610a57565b81810151835560209485019460019093019290910190610a3c565b015190503880610563565b9250600285016000526020600020906000935b601f1984168510610afd576001945083601f19811610610ae4575b505050811b01600283015561057b565b015160001960f88460031b161c19169055388080610ad4565b81810151835560209485019460019093019290910190610ab9565b015190503880610502565b9250600185016000526020600020906000935b601f1984168510610b7a576001945083601f19811610610b61575b505050811b01600183015561051a565b015160001960f88460031b161c19169055388080610b51565b81810151835560209485019460019093019290910190610b36565b606460405162461bcd60e51b8152602080600483015260248201527f4552433732313a206d696e7420746f20746865207a65726f20616464726573736044820152fd5b508661ffff9596610c14610c3095610c2094610c086040519b610bfa8d6134ec565b60008d5260e051369161359b565b60208c0152369161359b565b6040890152369161359b565b606086015236906101205161359b565b6080840152610c453660a0516101405161359b565b60a0840152610c5b36610100516101605161359b565b60c08401521660e08201526000610100820152604051610c7a81613509565b6000815261012082015260006101408201527f539b0d6c99718bb3b101e6805f62e0bc594b47f91bfaf8c3eb448a88d3a79c1160405161ffff610180511681526040602082015280610cd360c051946040830190613402565b0390a2005b600080fd5b34610cd8576020366003190112610cd857600435600d54811015610cd857600d600052604051610de49160021b610d4182610d3a817fd7b6990105719101dabeb77144f2a3385c8033acd3af97e9423a695e81ad1eb5850161362a565b038361355d565b604051610d7b81610d74817fd7b6990105719101dabeb77144f2a3385c8033acd3af97e9423a695e81ad1eb6860161362a565b038261355d565b610df26001600160a01b037fd7b6990105719101dabeb77144f2a3385c8033acd3af97e9423a695e81ad1eb87fd7b6990105719101dabeb77144f2a3385c8033acd3af97e9423a695e81ad1eb7850154940154169160405195869560808752608087019061334e565b90858203602087015261334e565b91604084015260608301520390f35b34610cd8576020366003190112610cd857610e1a613373565b610e22613a5c565b6001600160a01b03809116908115610e6f57600a54826001600160a01b0319821617600a55167f8be0079c531659141344cd1fd0a4f28419497f9722a3daafe3b4186f6b6457e0600080a3005b608460405162461bcd60e51b815260206004820152602660248201527f4f776e61626c653a206e6577206f776e657220697320746865207a65726f206160448201527f64647265737300000000000000000000000000000000000000000000000000006064820152fd5b34610cd85760a0366003190112610cd85760243567ffffffffffffffff8111610cd857610f0a9036906004016135d2565b60443567ffffffffffffffff8111610cd857610f2a9036906004016135d2565b6084356001600160a01b038116809103610cd857610f68610f6360043560005260026020526001600160a01b0360406000205416151590565b6137a8565b600435600052600f60205260ff600a604060002001541660068110156108175715158061147a575b80611450575b610f9f90613863565b600435600052600f60205260ff600a604060002001541660068110156108175760051480611447575b156113dd5760405190610fda826134d0565b83825282602083015260643560408301526060820152600d5468010000000000000000811015610801576001810180600d558110156113c757600d600052815180519067ffffffffffffffff821161080157819061108c826110618660021b7fd7b6990105719101dabeb77144f2a3385c8033acd3af97e9423a695e81ad1eb501546135f0565b8660021b7fd7b6990105719101dabeb77144f2a3385c8033acd3af97e9423a695e81ad1eb501613754565b602090601f831160011461131157600092611306575b50508160011b916000199060031b1c1916178160021b7fd7b6990105719101dabeb77144f2a3385c8033acd3af97e9423a695e81ad1eb501555b7fd7b6990105719101dabeb77144f2a3385c8033acd3af97e9423a695e81ad1eb68160021b01602083015180519067ffffffffffffffff8211610801576111278261074b85546135f0565b602090601f831160011461124b577f10825ab468d040a6660a1333834256566d8b4a73a5fa26dee96873d65554e84e969461122d9694846001600160a01b03956060957fd7b6990105719101dabeb77144f2a3385c8033acd3af97e9423a695e81ad1eb895600092611240575b50508160011b916000199060031b1c19161790555b60408501517fd7b6990105719101dabeb77144f2a3385c8033acd3af97e9423a695e81ad1eb78260021b015560021b01920151166001600160a01b0319825416179055600435600052600f602052600a604060002001600260ff1982541617905561121f6040519460608652606086019061334e565b90848203602086015261334e565b91606435604082015280600435930390a2005b015190508c80611194565b90601f198316918460005260206000209260005b8181106112ee5750946001856060957fd7b6990105719101dabeb77144f2a3385c8033acd3af97e9423a695e81ad1eb8957f10825ab468d040a6660a1333834256566d8b4a73a5fa26dee96873d65554e84e9c9a956001600160a01b039961122d9d9b106112d5575b505050811b0190556111a9565b015160001960f88460031b161c191690558c80806112c8565b9293602060018192878601518155019501930161125f565b0151905086806110a2565b92508360021b7fd7b6990105719101dabeb77144f2a3385c8033acd3af97e9423a695e81ad1eb5016000526020600020906000935b601f19841685106113ac576001945083601f19811610611393575b505050811b018160021b7fd7b6990105719101dabeb77144f2a3385c8033acd3af97e9423a695e81ad1eb501556110dc565b015160001960f88460031b161c19169055868080611361565b81810151835560209485019460019093019290910190611346565b634e487b7160e01b600052603260045260246000fd5b608460405162461bcd60e51b815260206004820152602160248201527f4368616e67652076656c6f2073746174757320696e204d61696e74656e616e6360448201527f65000000000000000000000000000000000000000000000000000000000000006064820152fd5b50338114610fc8565b50600435600052600f60205260ff600a604060002001541660068110156108175760041415610f96565b50600435600052600f60205260ff600a604060002001541660068110156108175760011415610f90565b34610cd8576040366003190112610cd8576114bd613373565b6114c5613389565b906001600160a01b03809116600052600560205260406000209116600052602052602060ff604060002054166040519015158152f35b34610cd8576020366003190112610cd85761153661153160043560005260026020526001600160a01b0360406000205416151590565b613e1e565b600435600052600f602052604060002060405190611553826134ec565b8054825260405161156b81610d74816001860161362a565b60208301526040519061158582610d3a816002850161362a565b604083019182526040516115a081610d74816003860161362a565b60608401526040516115b981610d74816004860161362a565b6080840152604051916115da836115d3816005860161362a565b038461355d565b60a0840192835261164b60ff600a60405194611604866115fd816006850161362a565b038761355d565b60c0880195865261ffff60078201541660e0890152600881015461010089015260405161163881610d74816009860161362a565b6101208901520154166101408601613748565b51611657600435613c44565b925191519361014081015160068110156108175760ff6116779116613c44565b9230926040519361168785613525565b602a855260403660208701378451156113c757603060208601538451600110156113c7576078602186015360295b60018111611d615750611d1d576116cd600435613c44565b936101208401516020850151956116eb61ffff60e088015116613c44565b926101406116fd610100890151613c44565b970151600681101561081757611712906138ae565b986040519b8c9b8c7f7b0000000000000000000000000000000000000000000000000000000000000098896020830152602182017f226e616d65223a2022000000000000000000000000000000000000000000000090528051602a819301916020019161177e9261332b565b8d01602a81017f2023000000000000000000000000000000000000000000000000000000000000905281519182602c830191602001916117bd9261332b565b01977f222c0000000000000000000000000000000000000000000000000000000000009889602c820152602e81017f226465736372697074696f6e223a202200000000000000000000000000000000905281519182603e830191602001916118249261332b565b0188603e820152604081017f22696d616765223a202200000000000000000000000000000000000000000000905281519182604a830191602001916118689261332b565b0187604a820152604c81017f22737461747573223a20000000000000000000000000000000000000000000009052815191826056830191602001916118ac9261332b565b01605681017f2c000000000000000000000000000000000000000000000000000000000000009052605781017f2265787465726e616c5f6c696e6b223a202268747470733a2f2f62696b652d6f9052607781017f6e2d636861696e2d346663386d363367782d7061626c6f68617373616e2e76659052609781017f7263656c2e6170702f000000000000000000000000000000000000000000000090528151918260a08301916020019161195f9261332b565b0160a08101602f60f81b90528151918260a1830191602001916119819261332b565b019360a185015260a384017f2261747472696275746573223a205b000000000000000000000000000000000090528260b285015260b384017f2274726169745f74797065223a202253657269616c206e756d626572222c000090527f2276616c7565223a202200000000000000000000000000000000000000000000938460d18201528151918260db83019160200191611a1a9261332b565b01907f220000000000000000000000000000000000000000000000000000000000000080968160db8501527f7d2c000000000000000000000000000000000000000000000000000000000000938460dc8201528560de82015260df81017f2274726169745f74797065223a20224272616e64222c0000000000000000000090528660f58201528151918260ff83019160200191611ab69261332b565b018160ff820152836101008201528461010282015261010381017f2274726169745f74797065223a20224275696c642079656172222c000000000090528561011e82015282519061012893828583019160200191611b139261332b565b0191820152816101298201528261012b82015261012c81017f2274726169745f74797065223a20224669727374207075726368617365206461905261014c81017f7465222c00000000000000000000000000000000000000000000000000000000905261015081017f22646973706c61795f74797065223a202264617465222c000000000000000000905261016781017f2276616c7565223a200000000000000000000000000000000000000000000000905284519061017095828783019160200191611bdf9261332b565b019384015261017283015261017382017f22737461747573223a2022537461747573222c00000000000000000000000000905261018682015282519061019093828583019160200191611c319261332b565b01918201527f7d000000000000000000000000000000000000000000000000000000000000008061019183015261019282017f5d000000000000000000000000000000000000000000000000000000000000009052610193820152036101748101825261019401611ca2908261355d565b611cab90613ae6565b6040518091602082017f646174613a6170706c69636174696f6e2f6a736f6e3b6261736536342c000000905280519081603d84019160200191611ced9261332b565b810103601d81018252603d01611d03908261355d565b60405180916020825260208201611d199161334e565b0390f35b606460405162461bcd60e51b815260206004820152602060248201527f537472696e67733a20686578206c656e67746820696e73756666696369656e746044820152fd5b906010600f821610156113c75785518210156113c7577f3031323334353637383961626364656600000000000000000000000000000000600f82161a6020838801015360041c908015611db757600019016116b5565b634e487b7160e01b600052601160045260246000fd5b34610cd8576080366003190112610cd857611de6613373565b611dee613389565b906064359060443567ffffffffffffffff8311610cd85736602384011215610cd857611e4e93611e2b6103f294369060248160040135910161359b565b92611e3e611e3984336143a8565b613ec8565b611e49838383613f39565b614674565b005b34610cd857602080600319360112610cd85760043590611fd4604051611e75816134ec565b6000815260ff600a606095868685015286604085015286808501528660808501528660a08501528660c0850152600060e085015261010090600082860152610120908882870152600061014080970152611ee8610f638260005260026020526001600160a01b0360406000205416151590565b600052600f875260406000209160405198611f028a6134ec565b83548a52604051611f1a81610d74816001890161362a565b898b0152604051611f3281610d74816002890161362a565b60408b015260405190611f4c82610d3a816003890161362a565b8a0152604051611f6381610d74816004880161362a565b60808a0152604051611f7c81610d74816005880161362a565b60a08a0152604051611f9581610d74816006880161362a565b60c08a015261ffff60078401541660e08a015260088301549089015260405190611fc682610d3a816009870161362a565b880152015416908401613748565b611d19604051928284938452830190613402565b34610cd8576040366003190112610cd857600435612004613389565b90612028610f638260005260026020526001600160a01b0360406000205416151590565b61203a61203582336143a8565b6137f3565b80600052602091600f835260ff600a6040600020015416600681101561081757151580612103575b806120da575b907fac323254ea442cd352a667fb8032ed04cce3acd1fd208772e069248bb8c0b6fb9261209c6001600160a01b0393613863565b6000908152600f855260409020600a01805460ff19166005908117909155610cd3906120c7906138ae565b604051938493878552169583019061334e565b5081600052600f835260ff600a6040600020015416906006821015610817579060041415612068565b5081600052600f835260ff600a604060002001541660068110156108175760011415612062565b34610cd8576000366003190112610cd8576020600c54604051908152f35b34610cd8576040366003190112610cd857612161613373565b60243590811515809203610cd8576001600160a01b0316908133146121d557336000526005602052604060002082600052602052604060002060ff1981541660ff83161790556040519081527f17307eab39ab6107e8899845ad3d59bd9653f200f220920489ca2b5937696c3160203392a3005b606460405162461bcd60e51b815260206004820152601960248201527f4552433732313a20617070726f766520746f2063616c6c6572000000000000006044820152fd5b34610cd8576000366003190112610cd8576040516000600180549061223d826135f0565b808552918181169081156122d15750600114612278575b611d19846122648186038261355d565b60405191829160208352602083019061334e565b600081815292507fb10e2d527612073b26eecdfd717e6a320cf44b4afac2b0732d9fcbe2b7fa0cf65b8284106122b957505050810160200161226482612254565b805460208587018101919091529093019281016122a1565b60ff191660208087019190915292151560051b850190920192506122649150839050612254565b34610cd857602080600319360112610cd85760043590612331610f638360005260026020526001600160a01b0360406000205416151590565b61233e61203583336143a8565b81600052600f815260ff600a6040600020015416600681101561081757156123bf576000828152600f825260409020600a01805460ff191660029081179091557f24ab1ef75ba571a21969207cb2b99a8967e2c38430906243724b0fe8ef64ff7e91906123aa906138ae565b90610cd360405192828493845283019061334e565b6064906040519062461bcd60e51b82526004820152601960248201527f4e6f7420616c6c6f7765642c2062696b65206f6e2049646c65000000000000006044820152fd5b34610cd8576020366003190112610cd85760043560005260106020526020604060002054604051908152f35b34610cd8576000366003190112610cd85760206001600160a01b03600a5416604051908152f35b34610cd8576000366003190112610cd85761246f613a5c565b60006001600160a01b03600a546001600160a01b03198116600a55167f8be0079c531659141344cd1fd0a4f28419497f9722a3daafe3b4186f6b6457e08280a3005b34610cd8576020366003190112610cd85760206124d46124cf613373565b613d94565b604051908152f35b34610cd857602080600319360112610cd857612513610f6360043560005260026020526001600160a01b0360406000205416151590565b600d5467ffffffffffffffff8111610801579060405191612539828260051b018461355d565b8083528183019081600d6000527fd7b6990105719101dabeb77144f2a3385c8033acd3af97e9423a695e81ad1eb56000915b83831061260d5750505050604051918083019381845251809452604083019360408160051b85010192916000955b8287106125a65785850386f35b909192938280600192603f198982030185528751906125e06125d08351608080855284019061334e565b848401518382038685015261334e565b91604081015160408301526001600160a01b03606080920151169101529601920196019592919092612599565b600486600192604099989951612622816134d0565b60405161263381610d74818a61362a565b815260405161264881610d7481898b0161362a565b83820152600286015460408201526001600160a01b03600387015416606082015281520192019201919095949561256b565b34610cd8576080366003190112610cd857612693613373565b61269b613389565b906044359060643561ffff8116809103610cd8576126b7613a5c565b8260005260109360209285845260406000205483116127e55760005b83811061271357857f65659fbf3bab178ce96dcb4ea95ba3900cae36f9426e9920b7940995f62b06bf8689836000528152604060002054604051908152a2005b6000868152878652604090208054600019929190838101908111611db75761273a91613706565b929054600393841b1c928860005289885260406000209384549182156127cf576127ca95846107f6956103f29501926127738484613706565b81939154921b1b191690555580600052600f8952600a604060002001600160ff19825416179055604051906127a782613509565b600082526127b8611e3982336143a8565b6127c3818989613f39565b8787614674565b6126d3565b634e487b7160e01b600052603160045260246000fd5b6064846040519062461bcd60e51b82526004820152601160248201527f416d6f756e7420746f6f206869676865720000000000000000000000000000006044820152fd5b34610cd8576020366003190112610cd8576020612847600435613e69565b6001600160a01b0360405191168152f35b34610cd85760a0366003190112610cd857612871613373565b612879613389565b906044356064359267ffffffffffffffff93848111610cd8576128a09036906004016133d4565b90916128c5610f638560005260026020526001600160a01b0360406000205416151590565b6128d261203585336143a8565b83600052602095600f875260ff600a60406000200154166006811015610817576001809103612b445760405188810189815285604083015285876060840137600060608784010152601f199161293a60608285601f8b0116810103604081018452018261355d565b5190206040518a8101908b8252600060408201526040815261295b81613525565b51902014612b00576000878152600f8a52604090206084356008820155600901928511610801576129908561074b85546135f0565b600090601f8611600114612a75575095612a21936103f2938680849b957f840772e4ccc603ecc25688df05b0bf5d5ce14df2c1466dc930a6cdf57410f7af9b600093612a6a575b501b906000198960031b1c19161790555b81600052600f8a52600a604060002001600260ff1982541617905560405192612a1084613509565b60008452611e3e611e3984336143a8565b83600052600f8552612a3d60ff600a60406000200154166138ae565b9181604051928392833781016000815203902093612a6560405192828493845283019061334e565b0390a3005b8b013592508e6129d7565b85169083600052896000209160005b8b828210612aec575050938899937f840772e4ccc603ecc25688df05b0bf5d5ce14df2c1466dc930a6cdf57410f7af9993612a219793896103f29810612ad2575b505087811b0190556129e8565b8a013560001960038b901b60f8161c191690558c80612ac5565b898401358555938501939283019201612a84565b6064896040519062461bcd60e51b82526004820152600860248201527f534e20656d7074790000000000000000000000000000000000000000000000006044820152fd5b6064886040519062461bcd60e51b82526004820152600b60248201527f4e6f74206f6e2073616c650000000000000000000000000000000000000000006044820152fd5b34610cd8576020366003190112610cd857600435600854811015612bbf57612bb16020916136cf565b90546040519160031b1c8152f35b608460405162461bcd60e51b815260206004820152602c60248201527f455243373231456e756d657261626c653a20676c6f62616c20696e646578206f60448201527f7574206f6620626f756e647300000000000000000000000000000000000000006064820152fd5b34610cd857602080600319360112610cd85760043590612c62610f638360005260026020526001600160a01b0360406000205416151590565b612c6f61203583336143a8565b81600052600f815260ff600a6040600020015416600681101561081757151580612d3e575b80612d17575b7f96beb34c3dbedef6829ea4f0bd1502174f935175f94a0aa34519a6aded43dd9191612cc7606092613863565b83600052600f8152600a604060002001600460ff198254161790556017604051918083528201527f62696b65206973206465636c617265642073746f6c656e0000000000000000006040820152a2005b5081600052600f815260ff600a604060002001541660068110156108175760041415612c9a565b5081600052600f815260ff600a604060002001541660068110156108175760011415612c94565b34610cd857611e4e6103f2612d793661339f565b9060405192612a1084613509565b34610cd8576040366003190112610cd857612da0613373565b60243590612dad81613d94565b821015612de1576001600160a01b031660005260066020526040600020906000526020526020604060002054604051908152f35b608460405162461bcd60e51b815260206004820152602b60248201527f455243373231456e756d657261626c653a206f776e657220696e646578206f7560448201527f74206f6620626f756e64730000000000000000000000000000000000000000006064820152fd5b34610cd857611e4e612e5c3661339f565b91612e6a611e3984336143a8565b613f39565b34610cd8576000366003190112610cd8576020600854604051908152f35b34610cd8576040366003190112610cd857600435612ec4610f638260005260026020526001600160a01b0360406000205416151590565b612ed161203582336143a8565b80600052600f60205260ff600a6040600020015416600681101561081757151580612fac575b80612f84575b612f0690613863565b80600052600f602052600a604060002001600160ff198254161790557f85e6b52d3a1cb0c8567ae9ee9d9cf2b87bdafa1e444017f6317c231f447e371a608060405160408152600660408201527f4f6e53616c65000000000000000000000000000000000000000000000000000060608201526024356020820152a2005b5080600052600f60205260ff600a604060002001541660068110156108175760041415612efd565b5080600052600f60205260ff600a604060002001541660068110156108175760011415612ef7565b34610cd8576040366003190112610cd857612fed613373565b602435906001600160a01b03808061300485613e69565b169216918083146130fe578033149081156130d9575b501561306f578260005260046020526040600020826001600160a01b031982541617905561304783613e69565b167f8c5be1e5ebec7d5bd14f71427d1e84f3dd0314c0f7b2291e5b200ac8c7c3b925600080a4005b608460405162461bcd60e51b815260206004820152603d60248201527f4552433732313a20617070726f76652063616c6c6572206973206e6f7420746f60448201527f6b656e206f776e6572206f7220617070726f76656420666f7220616c6c0000006064820152fd5b9050600052600560205260406000203360005260205260ff604060002054168461301a565b608460405162461bcd60e51b815260206004820152602160248201527f4552433732313a20617070726f76616c20746f2063757272656e74206f776e6560448201527f72000000000000000000000000000000000000000000000000000000000000006064820152fd5b34610cd8576020366003190112610cd8576020612847600435613e8b565b34610cd8576000366003190112610cd857604051600080546131a7816135f0565b808452906001908181169081156122d157506001146131d057611d19846122648186038261355d565b600080805292507f290decd9548b62a8d60345a988386fc84ba6bc95484008f6362f93160ef3e5635b82841061321157505050810160200161226482612254565b805460208587018101919091529093019281016131f9565b34610cd8576020366003190112610cd857600435907fffffffff000000000000000000000000000000000000000000000000000000008216809203610cd857817f780e9d63000000000000000000000000000000000000000000000000000000006020931490811561329d575b5015158152f35b7f80ac58cd00000000000000000000000000000000000000000000000000000000811491508115613301575b81156132d7575b5083613296565b7f01ffc9a700000000000000000000000000000000000000000000000000000000915014836132d0565b7f5b5e139f00000000000000000000000000000000000000000000000000000000811491506132c9565b60005b83811061333e5750506000910152565b818101518382015260200161332e565b906020916133678151809281855285808601910161332b565b601f01601f1916010190565b600435906001600160a01b0382168203610cd857565b602435906001600160a01b0382168203610cd857565b6060906003190112610cd8576001600160a01b03906004358281168103610cd857916024359081168103610cd8579060443590565b9181601f84011215610cd85782359167ffffffffffffffff8311610cd85760208381860195010111610cd857565b90815181526134b961348c61347a61346861345661344461343260208901516101608060208b015289019061334e565b604089015188820360408a015261334e565b6060880151878203606089015261334e565b6080870151868203608088015261334e565b60a086015185820360a087015261334e565b60c085015184820360c086015261334e565b61ffff60e08501511660e0840152610100808501519084015261012080850151908483039085015261334e565b916101408091015191600683101561081757015290565b6080810190811067ffffffffffffffff82111761080157604052565b610160810190811067ffffffffffffffff82111761080157604052565b6020810190811067ffffffffffffffff82111761080157604052565b6060810190811067ffffffffffffffff82111761080157604052565b6040810190811067ffffffffffffffff82111761080157604052565b90601f8019910116810190811067ffffffffffffffff82111761080157604052565b67ffffffffffffffff811161080157601f01601f191660200190565b9291926135a78261357f565b916135b5604051938461355d565b829481845281830111610cd8578281602093846000960137010152565b9080601f83011215610cd8578160206135ed9335910161359b565b90565b90600182811c92168015613620575b602083101461360a57565b634e487b7160e01b600052602260045260246000fd5b91607f16916135ff565b906000929180549161363b836135f0565b91828252600193848116908160001461369d575060011461365d575b50505050565b90919394506000526020928360002092846000945b838610613689575050505001019038808080613657565b805485870183015294019385908201613672565b9294505050602093945060ff191683830152151560051b01019038808080613657565b6000198114611db75760010190565b6008548110156113c75760086000527ff3f7a9fe364faab93b216da50a3214154f22a0a2b415b23a84c8169e8b636ee30190600090565b80548210156113c75760005260206000200190600090565b6008549068010000000000000000821015610801576107db82600161374694016008556136cf565b565b60068210156108175752565b90601f811161376257505050565b600091825260208220906020601f850160051c8301941061379e575b601f0160051c01915b82811061379357505050565b818155600101613787565b909250829061377e565b156137af57565b606460405162461bcd60e51b815260206004820152601260248201527f42696b6520646f65736e277420657869737400000000000000000000000000006044820152fd5b156137fa57565b608460405162461bcd60e51b8152602060048201526024808201527f43616c6c6572206973206e6f742062696b65206f776e6572206f72206170707260448201527f6f766564000000000000000000000000000000000000000000000000000000006064820152fd5b1561386a57565b606460405162461bcd60e51b815260206004820152600b60248201527f4e6f7420616c6c6f7765640000000000000000000000000000000000000000006044820152fd5b6006811015610817578015613a2257600181146139e857600281146139ae5760038114613974576004811461393a57600514613901576040516138f081613541565b60018152602f60f81b602082015290565b60405161390d81613541565b600e81527f4f6e204d61696e74656e616e6365000000000000000000000000000000000000602082015290565b5060405161394781613541565b600681527f53746f6c656e0000000000000000000000000000000000000000000000000000602082015290565b5060405161398181613541565b600e81527f4f7574206f662073657276696365000000000000000000000000000000000000602082015290565b506040516139bb81613541565b600a81527f496e207365727669636500000000000000000000000000000000000000000000602082015290565b506040516139f581613541565b600781527f4f6e2073616c6500000000000000000000000000000000000000000000000000602082015290565b50604051613a2f81613541565b600481527f49646c6500000000000000000000000000000000000000000000000000000000602082015290565b6001600160a01b03600a54163303613a7057565b606460405162461bcd60e51b815260206004820152602060248201527f4f776e61626c653a2063616c6c6572206973206e6f7420746865206f776e65726044820152fd5b90613abe8261357f565b613acb604051918261355d565b8281528092613adc601f199161357f565b0190602036910137565b805115613c3057604051613af981613525565b604081527f4142434445464748494a4b4c4d4e4f505152535455565758595a61626364656660208201527f6768696a6b6c6d6e6f707172737475767778797a303132333435363738392b2f60408201528151600292838201809211611db75760038092047f3fffffffffffffffffffffffffffffffffffffffffffffffffffffffffffffff81168103611db757613b93908594951b613ab4565b936020850193829183518401925b838110613bdf5750505050510680600114613bcc57600214613bc1575090565b603d90600019015390565b50603d9081600019820153600119015390565b85600491979293949701918251600190603f9082828260121c16880101518453828282600c1c16880101518385015382828260061c1688010151888501531685010151878201530195929190613ba1565b50604051613c3d81613509565b6000815290565b806000917a184f03e93ff9f4daa797ed6e38ed64bf6a1f01000000000000000080821015613d86575b506d04ee2d6d415b85acef810000000080831015613d77575b50662386f26fc1000080831015613d68575b506305f5e10080831015613d59575b5061271080831015613d4a575b506064821015613d3a575b600a80921015613d30575b600190816021613cdb828701613ab4565b95860101905b613ced575b5050505090565b600019019083907f30313233343536373839616263646566000000000000000000000000000000008282061a835304918215613d2b57919082613ce1565b613ce6565b9160010191613cca565b9190606460029104910191613cbf565b60049193920491019138613cb4565b60089193920491019138613ca7565b60109193920491019138613c98565b60209193920491019138613c86565b604093508104915038613c6d565b6001600160a01b03168015613db457600052600360205260406000205490565b608460405162461bcd60e51b815260206004820152602960248201527f4552433732313a2061646472657373207a65726f206973206e6f74206120766160448201527f6c6964206f776e657200000000000000000000000000000000000000000000006064820152fd5b15613e2557565b606460405162461bcd60e51b815260206004820152601860248201527f4552433732313a20696e76616c696420746f6b656e20494400000000000000006044820152fd5b60005260026020526001600160a01b03604060002054166135ed811515613e1e565b613eae6115318260005260026020526001600160a01b0360406000205416151590565b60005260046020526001600160a01b036040600020541690565b15613ecf57565b608460405162461bcd60e51b815260206004820152602d60248201527f4552433732313a2063616c6c6572206973206e6f7420746f6b656e206f776e6560448201527f72206f7220617070726f766564000000000000000000000000000000000000006064820152fd5b919060008281526020600f815260409260ff600a858520015416600690818110156142df57156142f357858452600f835260ff600a868620015416818110156142df576002036142d857858452600f83526009858520018551613fb781613fa9878201948886528a83019061362a565b03601f19810183528261355d565b5190208551848101908582528688820152878152613fd481613525565b51902014155b1561429557906140069291613fee87613e69565b6001600160a01b038981169590939184168614614461565b82811698891561422d57918593918a95938a971560001461411c57508486937f39c42552c5dd2efe63a1f4ad4dc1a8884d553e7ff3db60a0831d40c36892904d9a9361407d936008548b8d5260098952868d20556140638b61371e565b8387036140ee575b505061407689613e69565b1614614461565b858752600483526002818820936001600160a01b03199485815416905585895260038152828920600019815401905583895282892060018154019055878952528620918254161790557fddf252ad1be2c89b69c2b068fc378daa952ba7f163c4a11628f55a4df523b3ef8480a480a3565b6140f790613d94565b90868c528752848b20818c52875289858c2055898b5260078752848b2055388061406b565b868603614154575b508486937f39c42552c5dd2efe63a1f4ad4dc1a8884d553e7ff3db60a0831d40c36892904d9a9361407d93614063565b9092949798955061416791939650613d94565b6000198101908111614219579361407d878998958b98958d989589968b7f39c42552c5dd2efe63a1f4ad4dc1a8884d553e7ff3db60a0831d40c36892904d9e52600789528c8780822054918383036141e4575b90508d9150528c87812055848d52828952868d20908d5288528b868120559350939a509350614124565b878152858c528181208482528c5281812054888252868d528282208483528d528083832055815260078c52205538878e6141ba565b602488634e487b7160e01b81526011600452fd5b60848589519062461bcd60e51b825260048201526024808201527f4552433732313a207472616e7366657220746f20746865207a65726f2061646460448201527f72657373000000000000000000000000000000000000000000000000000000006064820152fd5b60648386519062461bcd60e51b82526004820152601760248201527f43616c6c207472616e73666572466f72536572766963650000000000000000006044820152fd5b6001613fda565b602485634e487b7160e01b81526021600452fd5b60648386519062461bcd60e51b82526004820152600960248201527f49646c65206d6f646500000000000000000000000000000000000000000000006044820152fd5b1561433d57565b60405162461bcd60e51b815260206004820152603260248201527f4552433732313a207472616e7366657220746f206e6f6e20455243373231526560448201527f63656976657220696d706c656d656e74657200000000000000000000000000006064820152608490fd5b906001600160a01b0380806143bc84613e69565b169316918383149384156143ef575b5083156143d9575b50505090565b6143e591929350613e8b565b16143880806143d3565b909350600052600560205260406000208260005260205260ff6040600020541692386143cb565b1561441d57565b606460405162461bcd60e51b815260206004820152601c60248201527f4552433732313a20746f6b656e20616c7265616479206d696e746564000000006044820152fd5b1561446857565b608460405162461bcd60e51b815260206004820152602560248201527f4552433732313a207472616e736665722066726f6d20696e636f72726563742060448201527f6f776e65720000000000000000000000000000000000000000000000000000006064820152fd5b9192600092909190803b1561466a57614528946040518092630a85bd0160e11b9485835233600484015287602484015260448301526080606483015281876001600160a01b038260209b8c97608483019061334e565b0393165af184918161460e575b506145e5575050503d6000146145dd573d61454f8161357f565b9061455d604051928361355d565b81528091833d92013e5b805191826145da5760405162461bcd60e51b815260206004820152603260248201527f4552433732313a207472616e7366657220746f206e6f6e20455243373231526560448201527f63656976657220696d706c656d656e74657200000000000000000000000000006064820152608490fd5b01fd5b506060614567565b7fffffffff00000000000000000000000000000000000000000000000000000000161492509050565b9091508581813d8311614663575b614626818361355d565b8101031261465f57517fffffffff000000000000000000000000000000000000000000000000000000008116810361465f579038614535565b8480fd5b503d61461c565b5050915050600190565b9293600093909291803b156146cf579484916145289660405180948193630a85bd0160e11b978884523360048501526001600160a01b0380921660248501526044840152608060648401528260209b8c97608483019061334e565b50505091505060019056fea2646970667358221220bbb184c0c55fe97c6098800e802adc21269790359b473e9cd176a7a7f157257764736f6c63430008110033",
  "linkReferences": {},
  "deployedLinkReferences": {}
}