{
  "_format": "hh-sol-artifact-1",
  "contractName": "BikeCollectionFactory",
  "sourceName": "contracts/BikeCollectionFactory.sol",
  "abi": [
    {
      "anonymous": false,
      "inputs": [
        {
          "indexed": false,
          "internalType": "address",
          "name": "collectionAddr",
          "type": "address"
        },
        {
          "indexed": false,
          "internalType": "address",
          "name": "ownerAddr",
          "type": "address"
        },
        {
          "indexed": false,
          "internalType": "string",
          "name": "name",
          "type": "string"
        },
        {
          "indexed": false,
          "internalType": "string",
          "name": "symbol",
          "type": "string"
        }
      ],
      "name": "CollectionCreated",
      "type": "event"
    },
    {
      "anonymous": false,
      "inputs": [
        {
          "indexed": true,
          "internalType": "address",
          "name": "previousOwner",
          "type": "address"
        },
        {
          "indexed": true,
          "internalType": "address",
          "name": "newOwner",
          "type": "address"
        }
      ],
      "name": "OwnershipTransferred",
      "type": "event"
    },
    {
      "inputs": [
        {
          "internalType": "uint256",
          "name": "",
          "type": "uint256"
        }
      ],
      "name": "collectionAddresses",
      "outputs": [
        {
          "internalType": "address",
          "name": "",
          "type": "address"
        }
      ],
      "stateMutability": "view",
      "type": "function"
    },
    {
      "inputs": [
        {
          "internalType": "string",
          "name": "name",
          "type": "string"
        },
        {
          "internalType": "string",
          "name": "symbol",
          "type": "string"
        },
        {
          "internalType": "address",
          "name": "owner",
          "type": "address"
        }
      ],
      "name": "createCollection",
      "outputs": [],
      "stateMutability": "nonpayable",
      "type": "function"
    },
    {
      "inputs": [],
      "name": "getCollection",
      "outputs": [
        {
          "internalType": "contract BikeCollection",
          "name": "",
          "type": "address"
        }
      ],
      "stateMutability": "view",
      "type": "function"
    },
    {
      "inputs": [],
      "name": "isCollectionOwner",
      "outputs": [
        {
          "internalType": "bool",
          "name": "",
          "type": "bool"
        }
      ],
      "stateMutability": "view",
      "type": "function"
    },
    {
      "inputs": [],
      "name": "owner",
      "outputs": [
        {
          "internalType": "address",
          "name": "",
          "type": "address"
        }
      ],
      "stateMutability": "view",
      "type": "function"
    },
    {
      "inputs": [],
      "name": "renounceOwnership",
      "outputs": [],
      "stateMutability": "nonpayable",
      "type": "function"
    },
    {
      "inputs": [
        {
          "internalType": "address",
          "name": "newOwner",
          "type": "address"
        }
      ],
      "name": "transferOwnership",
      "outputs": [],
      "stateMutability": "nonpayable",
      "type": "function"
    }
  ],
  "bytecode": "0x6080806040523461005b5760008054336001600160a01b0319821681178355916001600160a01b03909116907f8be0079c531659141344cd1fd0a4f28419497f9722a3daafe3b4186f6b6457e09080a3614c2d90816100618239f35b600080fdfe6040608081526004803610156200001557600080fd5b600091823560e01c80634251921e1462000564578063715018a614620004f75780638da5cb5b14620004cf578063a4510631146200048e578063abae977f1462000433578063d0ae65db146200016d5763f2fde38b146200007557600080fd5b346200016957602036600319011262000169578135916001600160a01b03918284168094036200016457620000a9620006c0565b8315620000fb5750506000548273ffffffffffffffffffffffffffffffffffffffff19821617600055167f8be0079c531659141344cd1fd0a4f28419497f9722a3daafe3b4186f6b6457e0600080a380f35b906020608492519162461bcd60e51b8352820152602660248201527f4f776e61626c653a206e6577206f776e657220697320746865207a65726f206160448201527f64647265737300000000000000000000000000000000000000000000000000006064820152fd5b600080fd5b8280fd5b508290346200042f5760603660031901126200042f5767ffffffffffffffff83358181116200042b57620001a5903690860162000601565b60249283358381116200042757620001c1903690880162000601565b95604435946001600160a01b03808716809703620003c557620001e3620006c0565b8688526001602052808489205416620003e55783516144de8082019082821089831117620003d357829162000239916200071a8439878152620002298882018a6200067e565b9060208183039101528c6200067e565b039089f08015620003c9571694853b15620003c5578351907ff2fde38b000000000000000000000000000000000000000000000000000000008252878483015288828481838b5af18015620003bb5762000394575b5050600254916801000000000000000083101562000383576001830180600255831015620003705750506200036a9260807f5fead977881b23a0dbf2f905699203f29cefea57a576d2d4f412523191258e849798936200035b9360026000527f405787fa12a823e0f2b7631cc41b3ba8828b3321ca811111fa75cd3aa3bb5ace0173ffffffffffffffffffffffffffffffffffffffff19908882825416179055888b52600160205287828c209182541617905580519788978852602088015286015260808501906200067e565b9083820360608501526200067e565b0390a180f35b603290634e487b7160e01b600052526000fd5b60418891634e487b7160e01b835252fd5b8198929811620003a95783529588806200028e565b5060418792634e487b7160e01b835252fd5b85513d8b823e3d90fd5b8780fd5b84513d8a823e3d90fd5b848b604188634e487b7160e01b835252fd5b506018906020606494519362461bcd60e51b85528401528201527f416c726561647920686173206120636f6c6c656374696f6e00000000000000006044820152fd5b8580fd5b8380fd5b5080fd5b5090346200016957602036600319011262000169573560025481101562000169576001600160a01b03906002602094527f405787fa12a823e0f2b7631cc41b3ba8828b3321ca811111fa75cd3aa3bb5ace0154169051908152f35b8382346200042f57816003193601126200042f57602090620004c63360005260016020526001600160a01b0360406000205416151590565b90519015158152f35b8382346200042f57816003193601126200042f576001600160a01b0360209254169051908152f35b8334620005615780600319360112620005615762000514620006c0565b806001600160a01b03815473ffffffffffffffffffffffffffffffffffffffff1981168355167f8be0079c531659141344cd1fd0a4f28419497f9722a3daafe3b4186f6b6457e08280a380f35b80fd5b509190346200042f57816003193601126200042f576200059a3360005260016020526001600160a01b0360406000205416151590565b15620005be576020836001600160a01b038185338152600185522054169051908152f35b606490602084519162461bcd60e51b8352820152601860248201527f43616c6c657220686173206e6f20636f6c6c656374696f6e00000000000000006044820152fd5b81601f82011215620001645780359067ffffffffffffffff92838311620006685760405193601f8401601f19908116603f01168501908111858210176200066857604052828452602083830101116200016457816000926020809301838601378301015290565b634e487b7160e01b600052604160045260246000fd5b919082519283825260005b848110620006ab575050826000602080949584010152601f8019910116010190565b60208183018101518483018201520162000689565b6001600160a01b03600054163303620006d557565b606460405162461bcd60e51b815260206004820152602060248201527f4f776e61626c653a2063616c6c6572206973206e6f7420746865206f776e65726044820152fdfe6080604052346200036357620044de803803806200001d8162000368565b9283398101604082820312620003635781516001600160401b0392908381116200036357826200004f9183016200038e565b906020928382015185811162000363576200006b92016200038e565b9281518181116200034d576000938454916001948584811c9416801562000342575b838510146200032e578190601f94858111620002db575b508390858311600114620002775788926200026b575b5050600019600383901b1c191690851b1785555b8551928311620002575783548481811c911680156200024c575b828210146200023857828111620001f0575b50809183116001146200018a57508394829394926200017e575b5050600019600383901b1c191690821b1790555b600a8054336001600160a01b031982168117909255604051926001600160a01b03909116907f8be0079c531659141344cd1fd0a4f28419497f9722a3daafe3b4186f6b6457e09080a36140dd9081620004018239f35b01519050388062000114565b90601f198316958486528286209286905b888210620001d85750508385969710620001be575b505050811b01905562000128565b015160001960f88460031b161c19169055388080620001b0565b8087859682949686015181550195019301906200019b565b8486528186208380860160051c8201928487106200022e575b0160051c019085905b82811062000222575050620000fa565b87815501859062000212565b9250819262000209565b634e487b7160e01b86526022600452602486fd5b90607f1690620000e8565b634e487b7160e01b85526041600452602485fd5b015190503880620000ba565b8880528489208894509190601f1984168a5b87828210620002c45750508411620002aa575b505050811b018555620000ce565b015160001960f88460031b161c191690553880806200029c565b8385015186558b9790950194938401930162000289565b9091508780528388208580850160051c82019286861062000324575b918991869594930160051c01915b82811062000315575050620000a4565b8a815585945089910162000305565b92508192620002f7565b634e487b7160e01b87526022600452602487fd5b93607f16936200008d565b634e487b7160e01b600052604160045260246000fd5b600080fd5b6040519190601f01601f191682016001600160401b038111838210176200034d57604052565b919080601f84011215620003635782516001600160401b0381116200034d57602090620003c4601f8201601f1916830162000368565b92818452828287010111620003635760005b818110620003ec57508260009394955001015290565b8581018301518482018401528201620003d656fe6101a080604052600436101561001457600080fd5b60003560e01c90816301ffc9a714612c5e5750806306fdde0314612bbb57806307c6336e14612b02578063081812fc14612ae4578063095ea7b31461295057806318160ddd1461293257806323b872dd1461290e5780632f745c591461284a57806342842e0e14612828578063478646f7146127195780634f6ccce7146126785780634f95481b146123c95780636352211e1461239a57806363e4ab33146121eb57806370a08231146121c0578063715018a61461216557806387beaca414611d7b5780638da5cb5b14611d545780639303188914611d2857806394b3bcc914611c6f57806395d89b4114611b90578063a22cb46514611abf578063a2cdf78314611aa1578063a45728d3146119ab578063aafbbe031461180e578063b88d4fde1461178b578063c87b56dd14610eca578063e985e9c514610e73578063f2fde38b14610d9b578063fbca6ba614610cd25763fe6d49091461017557600080fd5b34610ccd57610100366003190112610ccd57600435806101405261ffff811603610ccd5760243567ffffffffffffffff8111610ccd576101b9903690600401612e09565b6101205260443567ffffffffffffffff8111610ccd576101dd903690600401612e09565b909160643567ffffffffffffffff8111610ccd576101ff903690600401612e09565b91909360843567ffffffffffffffff8111610ccd57610222903690600401612e09565b919060c05267ffffffffffffffff60a43511610ccd576102473660a435600401612e09565b6101805260805267ffffffffffffffff60c43511610ccd5761026e3660c435600401612e09565b6101005260e05260e4359161ffff83168303610ccd5761028f969596613457565b6001600c54018061016052600c5560009633155b61ffff6101405116891015610bcd576102ba613457565b600b9060018254018092556102d46040518060a052612f22565b600060a05152610b8a576103076103018260005260026020526001600160a01b0360406000205416151590565b15613de3565b60085481600052600960205260406000205561032281613119565b60009861032e3361378f565b3360005260066020526040600020816000526020528260406000205582600052600760205260406000205561037c6103018360005260026020526001600160a01b0360406000205416151590565b3360005260036020526040600020600181540190558160005260026020526040600020336001600160a01b0319825416179055813360007fddf252ad1be2c89b69c2b068fc378daa952ba7f163c4a11628f55a4df523b3ef8180a46103ec6103e760a0518433613e9f565b613d03565b6040516103f881612f05565b82815261040936610120518a612fb4565b6020820152610419368588612fb4565b6040820152610429368a8c612fb4565b606082015261043b368660c051612fb4565b60808201526104503661018051608051612fb4565b60a0820152610465366101005160e051612fb4565b60c082015261ffff871660e0820152600061010082015260405161048881612f22565b60008152610120820152600061014082015282600052600f60205260406000209080518255602081015180519067ffffffffffffffff82116107f65781906104e0826104d76001880154612feb565b6001880161314f565b602090601f8311600114610b1857600092610b0d575b50508160011b916000199060031b1c19161760018301555b604081015180519067ffffffffffffffff82116107f6578190610541826105386002880154612feb565b6002880161314f565b602090601f8311600114610a9b57600092610a90575b50508160011b916000199060031b1c19161760028301555b606081015180519067ffffffffffffffff82116107f65781906105a2826105996003880154612feb565b6003880161314f565b602090601f8311600114610a1e57600092610a13575b50508160011b916000199060031b1c19161760038301555b608081015180519067ffffffffffffffff82116107f6578190610603826105fa6004880154612feb565b6004880161314f565b602090601f83116001146109a157600092610996575b50508160011b916000199060031b1c19161760048301555b60a081015180519067ffffffffffffffff82116107f65781906106648261065b6005880154612feb565b6005880161314f565b602090601f831160011461092457600092610919575b50508160011b916000199060031b1c19161760058301555b60c081015180519067ffffffffffffffff82116107f65781906106c5826106bc6006880154612feb565b6006880161314f565b602090601f83116001146108a75760009261089c575b50508160011b916000199060031b1c19161760068301555b6007820161ffff60e08301511661ffff198254161790556101008101516008830155610120810151805167ffffffffffffffff81116107f65760098401916107458261073f8554612feb565b8561314f565b602090601f831160011461082d576101409493929160009183610822575b50508160011b916000199060031b1c19161790555b015190600682101561080c57600a019060ff80198354169116179055610160516000526010602052604060002091825490680100000000000000008210156107f6576107d0826107f09560016107eb95018155613101565b90919082549060031b600019811b9283911b16911916179055565b6130bb565b976102a3565b634e487b7160e01b600052604160045260246000fd5b634e487b7160e01b600052602160045260246000fd5b015190503880610763565b908360005260206000209160005b601f19851681106108845750918391600193610140979695601f1981161061086b575b505050811b019055610778565b015160001960f88460031b161c1916905538808061085e565b9192602060018192868501518155019401920161083b565b0151905038806106db565b9250600685016000526020600020906000935b601f19841685106108fe576001945083601f198116106108e5575b505050811b0160068301556106f3565b015160001960f88460031b161c191690553880806108d5565b818101518355602094850194600190930192909101906108ba565b01519050388061067a565b9250600585016000526020600020906000935b601f198416851061097b576001945083601f19811610610962575b505050811b016005830155610692565b015160001960f88460031b161c19169055388080610952565b81810151835560209485019460019093019290910190610937565b015190503880610619565b9250600485016000526020600020906000935b601f19841685106109f8576001945083601f198116106109df575b505050811b016004830155610631565b015160001960f88460031b161c191690553880806109cf565b818101518355602094850194600190930192909101906109b4565b0151905038806105b8565b9250600385016000526020600020906000935b601f1984168510610a75576001945083601f19811610610a5c575b505050811b0160038301556105d0565b015160001960f88460031b161c19169055388080610a4c565b81810151835560209485019460019093019290910190610a31565b015190503880610557565b9250600285016000526020600020906000935b601f1984168510610af2576001945083601f19811610610ad9575b505050811b01600283015561056f565b015160001960f88460031b161c19169055388080610ac9565b81810151835560209485019460019093019290910190610aae565b0151905038806104f6565b9250600185016000526020600020906000935b601f1984168510610b6f576001945083601f19811610610b56575b505050811b01600183015561050e565b015160001960f88460031b161c19169055388080610b46565b81810151835560209485019460019093019290910190610b2b565b606460405162461bcd60e51b8152602080600483015260248201527f4552433732313a206d696e7420746f20746865207a65726f20616464726573736044820152fd5b508661ffff9596610c0a610c2595610c1694610bfe6040519b610bef8d612f05565b60008d52610120513691612fb4565b60208c01523691612fb4565b60408901523691612fb4565b6060860152369060c051612fb4565b6080840152610c3a3661018051608051612fb4565b60a0840152610c4f366101005160e051612fb4565b60c08401521660e08201526000610100820152604051610c6e81612f22565b6000815261012082015260006101408201527f539b0d6c99718bb3b101e6805f62e0bc594b47f91bfaf8c3eb448a88d3a79c1160405161ffff610140511681526040602082015280610cc861016051946040830190612e37565b0390a2005b600080fd5b34610ccd576020366003190112610ccd57600435600d54811015610ccd57610d8990600d60005260011b610d977fd7b6990105719101dabeb77144f2a3385c8033acd3af97e9423a695e81ad1eb6610d7560405193610d5e85610d5781847fd7b6990105719101dabeb77144f2a3385c8033acd3af97e9423a695e81ad1eb501613025565b0386612f76565b610d6e6040518094819301613025565b0382612f76565b604051938493604085526040850190612d83565b908382036020850152612d83565b0390f35b34610ccd576020366003190112610ccd57610db4612da8565b610dbc613457565b6001600160a01b03809116908115610e0957600a54826001600160a01b0319821617600a55167f8be0079c531659141344cd1fd0a4f28419497f9722a3daafe3b4186f6b6457e0600080a3005b608460405162461bcd60e51b815260206004820152602660248201527f4f776e61626c653a206e6577206f776e657220697320746865207a65726f206160448201527f64647265737300000000000000000000000000000000000000000000000000006064820152fd5b34610ccd576040366003190112610ccd57610e8c612da8565b610e94612dbe565b906001600160a01b03809116600052600560205260406000209116600052602052602060ff604060002054166040519015158152f35b34610ccd576020366003190112610ccd57610f05610f0060043560005260026020526001600160a01b0360406000205416151590565b613819565b600435600052600f602052604060002060405190610f2282612f05565b80548252604051610f3a81610d6e8160018601613025565b602083015260405190610f5b82610f548160028501613025565b0383612f76565b60408301918252604051610f7681610d6e8160038601613025565b6060840152604051610f8f81610d6e8160048601613025565b608084015260405191610fb083610fa98160058601613025565b0384612f76565b60a0840192835261102160ff600a60405194610fda86610fd38160068501613025565b0387612f76565b60c0880195865261ffff60078201541660e0890152600881015461010089015260405161100e81610d6e8160098601613025565b6101208901520154166101408601613143565b5161102d60043561363f565b9251915193610140810151600681101561080c5760ff61104d911661363f565b9230926040519361105d85612f3e565b602a855260403660208701378451156117755760306020860153845160011015611775576078602186015360295b6001811161170957506116c5576110a360043561363f565b936101208401516020850151956110c161ffff60e08801511661363f565b926101406110d361010089015161363f565b970151600681101561080c576110e8906132a9565b986040519b8c9b8c7f7b0000000000000000000000000000000000000000000000000000000000000098896020830152602182017f226e616d65223a2022000000000000000000000000000000000000000000000090528051602a819301916020019161115492612d60565b8d01602a81017f2023000000000000000000000000000000000000000000000000000000000000905281519182602c8301916020019161119392612d60565b01977f222c0000000000000000000000000000000000000000000000000000000000009889602c820152602e81017f226465736372697074696f6e223a202200000000000000000000000000000000905281519182603e830191602001916111fa92612d60565b0188603e820152604081017f22696d616765223a202200000000000000000000000000000000000000000000905281519182604a8301916020019161123e92612d60565b0187604a820152604c81017f22737461747573223a200000000000000000000000000000000000000000000090528151918260568301916020019161128292612d60565b01605681017f2c000000000000000000000000000000000000000000000000000000000000009052605781017f2265787465726e616c5f6c696e6b223a2022687474703a2f2f62696b652d6f6e9052607781017f2d636861696e2e76657263656c2e6170702f000000000000000000000000000090528151918260898301916020019161130e92612d60565b0160898101602f60f81b905281519182608a8301916020019161133092612d60565b0193608a850152608c84017f2261747472696275746573223a205b0000000000000000000000000000000000905282609b850152609c84017f2274726169745f74797065223a202253657269616c206e756d626572222c000090527f2276616c7565223a202200000000000000000000000000000000000000000000938460ba8201528151918260c4830191602001916113c992612d60565b01907f220000000000000000000000000000000000000000000000000000000000000080968160c48501527f7d2c000000000000000000000000000000000000000000000000000000000000938460c58201528560c782015260c881017f2274726169745f74797065223a20224272616e64222c0000000000000000000090528660de8201528151918260e88301916020019161146592612d60565b018160e88201528360e98201528460eb82015260ec81017f2274726169745f74797065223a20224275696c642079656172222c0000000000905285610107820152825190610111938285830191602001916114bf92612d60565b0191820152816101128201528261011482015261011581017f2274726169745f74797065223a20224669727374207075726368617365206461905261013581017f7465222c00000000000000000000000000000000000000000000000000000000905261013981017f22646973706c61795f74797065223a202264617465222c000000000000000000905261015081017f2276616c7565223a20000000000000000000000000000000000000000000000090528451906101599582878301916020019161158b92612d60565b019384015261015b83015261015c82017f22737461747573223a2022537461747573222c00000000000000000000000000905261016f820152825190610179938285830191602001916115dd92612d60565b01918201527f7d000000000000000000000000000000000000000000000000000000000000008061017a83015261017b82017f5d00000000000000000000000000000000000000000000000000000000000000905261017c8201520361015d8101825261017d0161164e9082612f76565b611657906134e1565b6040518091602082017f646174613a6170706c69636174696f6e2f6a736f6e3b6261736536342c000000905280519081603d8401916020019161169992612d60565b810103601d81018252603d016116af9082612f76565b60405180916020825260208201610d9791612d83565b606460405162461bcd60e51b815260206004820152602060248201527f537472696e67733a20686578206c656e67746820696e73756666696369656e746044820152fd5b906010600f82161015611775578551821015611775577f3031323334353637383961626364656600000000000000000000000000000000600f82161a6020838801015360041c90801561175f576000190161108b565b634e487b7160e01b600052601160045260246000fd5b634e487b7160e01b600052603260045260246000fd5b34610ccd576080366003190112610ccd576117a4612da8565b6117ac612dbe565b906064359060443567ffffffffffffffff8311610ccd5736602384011215610ccd5761180c936117e96103e7943690602481600401359101612fb4565b926117fc6117f78433613d75565b6138c6565b611807838383613937565b614041565b005b34610ccd57602080600319360112610ccd576004359061199760405161183381612f05565b6000815260ff600a606095868685015286604085015286808501528660808501528660a08501528660c0850152600060e0850152610100906000828601526101209088828701526000610140809701526118ab6118a68260005260026020526001600160a01b0360406000205416151590565b6131a3565b600052600f8752604060002091604051986118c58a612f05565b83548a526040516118dd81610d6e8160018901613025565b898b01526040516118f581610d6e8160028901613025565b60408b01526040519061190f82610f548160038901613025565b8a015260405161192681610d6e8160048801613025565b60808a015260405161193f81610d6e8160058801613025565b60a08a015260405161195881610d6e8160068801613025565b60c08a015261ffff60078401541660e08a01526008830154908901526040519061198982610f548160098701613025565b880152015416908401613143565b610d97604051928284938452830190612e37565b34610ccd576040366003190112610ccd576004356119c7612dbe565b6119ea6118a68360005260026020526001600160a01b0360406000205416151590565b6119fc6119f78333613d75565b6131ee565b81600052600f60205260ff600a6040600020015416600681101561080c57151580611a77575b91611a346001600160a01b039361325e565b600052600f602052600a604060002001600560ff19825416179055167f80eec4fe59a236fda4dfe831d170b3fdd0c4a38c4ead4dfec9dfa9eb97b899df600080a2005b5081600052600f60205260ff600a604060002001541691600683101561080c579160011415611a22565b34610ccd576000366003190112610ccd576020600c54604051908152f35b34610ccd576040366003190112610ccd57611ad8612da8565b60243590811515809203610ccd576001600160a01b031690813314611b4c57336000526005602052604060002082600052602052604060002060ff1981541660ff83161790556040519081527f17307eab39ab6107e8899845ad3d59bd9653f200f220920489ca2b5937696c3160203392a3005b606460405162461bcd60e51b815260206004820152601960248201527f4552433732313a20617070726f766520746f2063616c6c6572000000000000006044820152fd5b34610ccd576000366003190112610ccd5760405160006001805490611bb482612feb565b80855291818116908115611c485750600114611bef575b610d9784611bdb81860382612f76565b604051918291602083526020830190612d83565b600081815292507fb10e2d527612073b26eecdfd717e6a320cf44b4afac2b0732d9fcbe2b7fa0cf65b828410611c30575050508101602001611bdb82611bcb565b80546020858701810191909152909301928101611c18565b60ff191660208087019190915292151560051b85019092019250611bdb9150839050611bcb565b34610ccd576020366003190112610ccd57600435611ca66118a68260005260026020526001600160a01b0360406000205416151590565b611cb36119f78233613d75565b80600052600f60205260ff600a6040600020015416600681101561080c57151580611d00575b611ce29061325e565b6000908152600f60205260409020600a01805460ff19166002179055005b5080600052600f60205260ff600a6040600020015416600681101561080c5760011415611cd9565b34610ccd576020366003190112610ccd5760043560005260106020526020604060002054604051908152f35b34610ccd576000366003190112610ccd5760206001600160a01b03600a5416604051908152f35b34610ccd576060366003190112610ccd57600435602467ffffffffffffffff8135818111610ccd57611db1903690600401612e09565b9190604435828111610ccd57611dcb903690600401612e09565b611dee6118a68860005260026020526001600160a01b0360406000205416151590565b86600052602092600f845260ff600a60406000200154166006811015612150576005036120e7576040519560408701878110878211176120d257604052611e45939291611e3c913691612fb4565b86523691612fb4565b93818401948552600d5493680100000000000000008510156120bd5760019485810180600d558110156120a857600d600052851b90817fd7b6990105719101dabeb77144f2a3385c8033acd3af97e9423a695e81ad1eb501905180519086821161209357611eb78261073f8554612feb565b8590601f831160011461200c577fd7b6990105719101dabeb77144f2a3385c8033acd3af97e9423a695e81ad1eb69493929160009183612001575b5050600019600383901b1c191690881b1790555b019451908151938411611fed5750611f2883611f228754612feb565b8761314f565b81601f8411600114611f875750928293918392600094611f7c575b50501b916000199060031b1c19161790555b7f7d71d811e0429b93b02c109642984434efdf620a634e4c29f32b3306f8cc6ff3600080a2005b015192508680611f43565b919083601f1981168760005284600020946000905b88838310611fd35750505010611fba575b505050811b019055611f55565b015160001960f88460031b161c19169055848080611fad565b858701518855909601959485019487935090810190611f9c565b634e487b7160e01b60005260416004526000fd5b015190508b80611ef2565b9392918891601f1982169084600052886000209160005b8a82821061207d57505096837fd7b6990105719101dabeb77144f2a3385c8033acd3af97e9423a695e81ad1eb69810612064575b505050811b019055611f06565b015160001960f88460031b161c191690558b8080612057565b838a015185558d96909401939283019201612023565b84634e487b7160e01b60005260416004526000fd5b82634e487b7160e01b60005260326004526000fd5b50634e487b7160e01b60005260416004526000fd5b88634e487b7160e01b60005260416004526000fd5b6084846021896040519262461bcd60e51b845260048401528201527f4368616e67652076656c6f2073746174757320696e204d61696e74656e616e6360448201527f65000000000000000000000000000000000000000000000000000000000000006064820152fd5b87634e487b7160e01b60005260216004526000fd5b34610ccd576000366003190112610ccd5761217e613457565b60006001600160a01b03600a546001600160a01b03198116600a55167f8be0079c531659141344cd1fd0a4f28419497f9722a3daafe3b4186f6b6457e08280a3005b34610ccd576020366003190112610ccd5760206121e36121de612da8565b61378f565b604051908152f35b34610ccd576080366003190112610ccd57612204612da8565b61220c612dbe565b906044359060643561ffff8116809103610ccd57612228613457565b8260005260109360209285845260406000205483116123565760005b83811061228457857f65659fbf3bab178ce96dcb4ea95ba3900cae36f9426e9920b7940995f62b06bf8689836000528152604060002054604051908152a2005b600086815287865260409020805460001992919083810190811161175f576122ab91613101565b929054600393841b1c928860005289885260406000209384549182156123405761233b95846107eb956103e79501926122e48484613101565b81939154921b1b191690555580600052600f8952600a604060002001600160ff198254161790556040519061231882612f22565b600082526123296117f78233613d75565b612334818989613937565b8787614041565b612244565b634e487b7160e01b600052603160045260246000fd5b6064846040519062461bcd60e51b82526004820152601160248201527f416d6f756e7420746f6f206869676865720000000000000000000000000000006044820152fd5b34610ccd576020366003190112610ccd5760206123b8600435613864565b6001600160a01b0360405191168152f35b34610ccd5760a0366003190112610ccd576123e2612da8565b6123ea612dbe565b906044356064359267ffffffffffffffff93848111610ccd57612411903690600401612e09565b6124376118a68597939760005260026020526001600160a01b0360406000205416151590565b6124446119f78533613d75565b83600052602095600f875260ff600a604060002001541690600682101561080c576001809203612634576040519088820189815284604084015284826060850137600060608685010152601f19926124ae60608286601f8a01168101036040810184520182612f76565b5190206040518a8101908b825260006040820152604081526124cf81612f3e565b519020146125f0576000878152600f8a526040902060843560088201556009019484116107f65761250484611f228754612feb565b600091601f8511600114612581575092808061180c9a946103e79a99989794600f97600094612576575b50501b916000199060031b1c19161790555b8360005252600a604060002001600260ff198254161790556040519261256584612f22565b600084526117fc6117f78433613d75565b013592508c8061252e565b849394169185600052896000209260005b8181106125db575092600f9592859261180c9c966103e79c9b9a9996106125c1575b505050811b019055612540565b0135600019600384901b60f8161c191690558a80806125b4565b83830135855593860193918b01918b01612592565b6064896040519062461bcd60e51b82526004820152600860248201527f534e20656d7074790000000000000000000000000000000000000000000000006044820152fd5b6064886040519062461bcd60e51b82526004820152600b60248201527f4e6f74206f6e2073616c650000000000000000000000000000000000000000006044820152fd5b34610ccd576020366003190112610ccd576004356008548110156126af576126a16020916130ca565b90546040519160031b1c8152f35b608460405162461bcd60e51b815260206004820152602c60248201527f455243373231456e756d657261626c653a20676c6f62616c20696e646578206f60448201527f7574206f6620626f756e647300000000000000000000000000000000000000006064820152fd5b34610ccd57602080600319360112610ccd57600435906127526118a68360005260026020526001600160a01b0360406000205416151590565b61275f6119f78333613d75565b81600052600f815260ff600a6040600020015416600681101561080c57151580612801575b7f96beb34c3dbedef6829ea4f0bd1502174f935175f94a0aa34519a6aded43dd91916127b160609261325e565b83600052600f8152600a604060002001600460ff198254161790556017604051918083528201527f62696b65206973206465636c617265642073746f6c656e0000000000000000006040820152a2005b5081600052600f815260ff600a6040600020015416600681101561080c5760011415612784565b34610ccd5761180c6103e761283c36612dd4565b906040519261256584612f22565b34610ccd576040366003190112610ccd57612863612da8565b602435906128708161378f565b8210156128a4576001600160a01b031660005260066020526040600020906000526020526020604060002054604051908152f35b608460405162461bcd60e51b815260206004820152602b60248201527f455243373231456e756d657261626c653a206f776e657220696e646578206f7560448201527f74206f6620626f756e64730000000000000000000000000000000000000000006064820152fd5b34610ccd5761180c61291f36612dd4565b9161292d6117f78433613d75565b613937565b34610ccd576000366003190112610ccd576020600854604051908152f35b34610ccd576040366003190112610ccd57612969612da8565b602435906001600160a01b03808061298085613864565b16921691808314612a7a57803314908115612a55575b50156129eb578260005260046020526040600020826001600160a01b03198254161790556129c383613864565b167f8c5be1e5ebec7d5bd14f71427d1e84f3dd0314c0f7b2291e5b200ac8c7c3b925600080a4005b608460405162461bcd60e51b815260206004820152603d60248201527f4552433732313a20617070726f76652063616c6c6572206973206e6f7420746f60448201527f6b656e206f776e6572206f7220617070726f76656420666f7220616c6c0000006064820152fd5b9050600052600560205260406000203360005260205260ff6040600020541684612996565b608460405162461bcd60e51b815260206004820152602160248201527f4552433732313a20617070726f76616c20746f2063757272656e74206f776e6560448201527f72000000000000000000000000000000000000000000000000000000000000006064820152fd5b34610ccd576020366003190112610ccd5760206123b8600435613889565b34610ccd576020366003190112610ccd57600435612b396118a68260005260026020526001600160a01b0360406000205416151590565b612b466119f78233613d75565b80600052600f60205260ff600a6040600020015416600681101561080c57151580612b93575b612b759061325e565b6000908152600f60205260409020600a01805460ff19166003179055005b5080600052600f60205260ff600a6040600020015416600681101561080c5760011415612b6c565b34610ccd576000366003190112610ccd5760405160008054612bdc81612feb565b80845290600190818116908115611c485750600114612c0557610d9784611bdb81860382612f76565b600080805292507f290decd9548b62a8d60345a988386fc84ba6bc95484008f6362f93160ef3e5635b828410612c46575050508101602001611bdb82611bcb565b80546020858701810191909152909301928101612c2e565b34610ccd576020366003190112610ccd57600435907fffffffff000000000000000000000000000000000000000000000000000000008216809203610ccd57817f780e9d630000000000000000000000000000000000000000000000000000000060209314908115612cd2575b5015158152f35b7f80ac58cd00000000000000000000000000000000000000000000000000000000811491508115612d36575b8115612d0c575b5083612ccb565b7f01ffc9a70000000000000000000000000000000000000000000000000000000091501483612d05565b7f5b5e139f0000000000000000000000000000000000000000000000000000000081149150612cfe565b60005b838110612d735750506000910152565b8181015183820152602001612d63565b90602091612d9c81518092818552858086019101612d60565b601f01601f1916010190565b600435906001600160a01b0382168203610ccd57565b602435906001600160a01b0382168203610ccd57565b6060906003190112610ccd576001600160a01b03906004358281168103610ccd57916024359081168103610ccd579060443590565b9181601f84011215610ccd5782359167ffffffffffffffff8311610ccd5760208381860195010111610ccd57565b9081518152612eee612ec1612eaf612e9d612e8b612e79612e6760208901516101608060208b0152890190612d83565b604089015188820360408a0152612d83565b60608801518782036060890152612d83565b60808701518682036080880152612d83565b60a086015185820360a0870152612d83565b60c085015184820360c0860152612d83565b61ffff60e08501511660e08401526101008085015190840152610120808501519084830390850152612d83565b916101408091015191600683101561080c57015290565b610160810190811067ffffffffffffffff8211176107f657604052565b6020810190811067ffffffffffffffff8211176107f657604052565b6060810190811067ffffffffffffffff8211176107f657604052565b6040810190811067ffffffffffffffff8211176107f657604052565b90601f8019910116810190811067ffffffffffffffff8211176107f657604052565b67ffffffffffffffff81116107f657601f01601f191660200190565b929192612fc082612f98565b91612fce6040519384612f76565b829481845281830111610ccd578281602093846000960137010152565b90600182811c9216801561301b575b602083101461300557565b634e487b7160e01b600052602260045260246000fd5b91607f1691612ffa565b906000929180549161303683612feb565b9182825260019384811690816000146130985750600114613058575b50505050565b90919394506000526020928360002092846000945b838610613084575050505001019038808080613052565b80548587018301529401938590820161306d565b9294505050602093945060ff191683830152151560051b01019038808080613052565b600019811461175f5760010190565b6008548110156117755760086000527ff3f7a9fe364faab93b216da50a3214154f22a0a2b415b23a84c8169e8b636ee30190600090565b80548210156117755760005260206000200190600090565b60085490680100000000000000008210156107f6576107d082600161314194016008556130ca565b565b600682101561080c5752565b90601f811161315d57505050565b600091825260208220906020601f850160051c83019410613199575b601f0160051c01915b82811061318e57505050565b818155600101613182565b9092508290613179565b156131aa57565b606460405162461bcd60e51b815260206004820152601260248201527f42696b6520646f65736e277420657869737400000000000000000000000000006044820152fd5b156131f557565b608460405162461bcd60e51b8152602060048201526024808201527f43616c6c6572206973206e6f742062696b65206f776e6572206f72206170707260448201527f6f766564000000000000000000000000000000000000000000000000000000006064820152fd5b1561326557565b606460405162461bcd60e51b815260206004820152600b60248201527f4e6f7420616c6c6f7765640000000000000000000000000000000000000000006044820152fd5b600681101561080c57801561341d57600181146133e357600281146133a9576003811461336f5760048114613335576005146132fc576040516132eb81612f5a565b60018152602f60f81b602082015290565b60405161330881612f5a565b600e81527f4f6e204d61696e74656e616e6365000000000000000000000000000000000000602082015290565b5060405161334281612f5a565b600681527f53746f6c656e0000000000000000000000000000000000000000000000000000602082015290565b5060405161337c81612f5a565b600e81527f4f7574206f662073657276696365000000000000000000000000000000000000602082015290565b506040516133b681612f5a565b600a81527f496e207365727669636500000000000000000000000000000000000000000000602082015290565b506040516133f081612f5a565b600781527f4f6e2073616c6500000000000000000000000000000000000000000000000000602082015290565b5060405161342a81612f5a565b600481527f49646c6500000000000000000000000000000000000000000000000000000000602082015290565b6001600160a01b03600a5416330361346b57565b606460405162461bcd60e51b815260206004820152602060248201527f4f776e61626c653a2063616c6c6572206973206e6f7420746865206f776e65726044820152fd5b906134b982612f98565b6134c66040519182612f76565b82815280926134d7601f1991612f98565b0190602036910137565b80511561362b576040516134f481612f3e565b604081527f4142434445464748494a4b4c4d4e4f505152535455565758595a61626364656660208201527f6768696a6b6c6d6e6f707172737475767778797a303132333435363738392b2f6040820152815160029283820180921161175f5760038092047f3fffffffffffffffffffffffffffffffffffffffffffffffffffffffffffffff8116810361175f5761358e908594951b6134af565b936020850193829183518401925b8381106135da57505050505106806001146135c7576002146135bc575090565b603d90600019015390565b50603d9081600019820153600119015390565b85600491979293949701918251600190603f9082828260121c16880101518453828282600c1c16880101518385015382828260061c168801015188850153168501015187820153019592919061359c565b5060405161363881612f22565b6000815290565b806000917a184f03e93ff9f4daa797ed6e38ed64bf6a1f01000000000000000080821015613781575b506d04ee2d6d415b85acef810000000080831015613772575b50662386f26fc1000080831015613763575b506305f5e10080831015613754575b5061271080831015613745575b506064821015613735575b600a8092101561372b575b6001908160216136d68287016134af565b95860101905b6136e8575b5050505090565b600019019083907f30313233343536373839616263646566000000000000000000000000000000008282061a835304918215613726579190826136dc565b6136e1565b91600101916136c5565b91906064600291049101916136ba565b600491939204910191386136af565b600891939204910191386136a2565b60109193920491019138613693565b60209193920491019138613681565b604093508104915038613668565b6001600160a01b031680156137af57600052600360205260406000205490565b608460405162461bcd60e51b815260206004820152602960248201527f4552433732313a2061646472657373207a65726f206973206e6f74206120766160448201527f6c6964206f776e657200000000000000000000000000000000000000000000006064820152fd5b1561382057565b606460405162461bcd60e51b815260206004820152601860248201527f4552433732313a20696e76616c696420746f6b656e20494400000000000000006044820152fd5b60005260026020526001600160a01b0360406000205416613886811515613819565b90565b6138ac610f008260005260026020526001600160a01b0360406000205416151590565b60005260046020526001600160a01b036040600020541690565b156138cd57565b608460405162461bcd60e51b815260206004820152602d60248201527f4552433732313a2063616c6c6572206973206e6f7420746f6b656e206f776e6560448201527f72206f7220617070726f766564000000000000000000000000000000000000006064820152fd5b6000838152600f60209081526040808320600a015460069796959060ff1688811015613cac5715613cc057858452600f835260ff600a83862001541688811015613cac57600203613ca557858452600f835260098285200182516139b6816139a88782019488865287830190613025565b03601f198101835282612f76565b51902082518481019085825286858201528481526139d381612f3e565b51902014155b15613c62578596976139ee613a069697613864565b6001600160a01b038881169790939184168814613e2e565b828116978815613bfa579188939188979695938815600014613af75750917fddf252ad1be2c89b69c2b068fc378daa952ba7f163c4a11628f55a4df523b3ef9791613a7c936008548d8a5260098952868a2055613a628d613119565b838703613ac9575b5050613a758b613864565b1614613e2e565b878452600483526002818520936001600160a01b031994858154169055878652600381528286206000198154019055838652828620600181540190558986525283209182541617905580a4565b613ad29061378f565b90868952875284882081895287528b858920558b885260078752848820553880613a6a565b858903613b2d575b50917fddf252ad1be2c89b69c2b068fc378daa952ba7f163c4a11628f55a4df523b3ef9791613a7c93613a62565b90929450613b3f91939596975061378f565b6000198101908111613be657889387969593613a7c938a938d7fddf252ad1be2c89b69c2b068fc378daa952ba7f163c4a11628f55a4df523b3ef9b5260078952868a2054818103613bb1575b508d8a528987812055848a52828952868a20908a52885288868120559193509197613aff565b858b52838a52878b20828c528a52878b2054868c52848b52888c20828d528b5280898d20558b5260078a52878b205538613b8b565b602487634e487b7160e01b81526011600452fd5b60848686519062461bcd60e51b825260048201526024808201527f4552433732313a207472616e7366657220746f20746865207a65726f2061646460448201527f72657373000000000000000000000000000000000000000000000000000000006064820152fd5b60648383519062461bcd60e51b82526004820152601760248201527f43616c6c207472616e73666572466f72536572766963650000000000000000006044820152fd5b60016139d9565b602485634e487b7160e01b81526021600452fd5b60648383519062461bcd60e51b82526004820152600960248201527f49646c65206d6f646500000000000000000000000000000000000000000000006044820152fd5b15613d0a57565b60405162461bcd60e51b815260206004820152603260248201527f4552433732313a207472616e7366657220746f206e6f6e20455243373231526560448201527f63656976657220696d706c656d656e74657200000000000000000000000000006064820152608490fd5b906001600160a01b038080613d8984613864565b16931691838314938415613dbc575b508315613da6575b50505090565b613db291929350613889565b1614388080613da0565b909350600052600560205260406000208260005260205260ff604060002054169238613d98565b15613dea57565b606460405162461bcd60e51b815260206004820152601c60248201527f4552433732313a20746f6b656e20616c7265616479206d696e746564000000006044820152fd5b15613e3557565b608460405162461bcd60e51b815260206004820152602560248201527f4552433732313a207472616e736665722066726f6d20696e636f72726563742060448201527f6f776e65720000000000000000000000000000000000000000000000000000006064820152fd5b9192600092909190803b1561403757613ef5946040518092630a85bd0160e11b9485835233600484015287602484015260448301526080606483015281876001600160a01b038260209b8c976084830190612d83565b0393165af1849181613fdb575b50613fb2575050503d600014613faa573d613f1c81612f98565b90613f2a6040519283612f76565b81528091833d92013e5b80519182613fa75760405162461bcd60e51b815260206004820152603260248201527f4552433732313a207472616e7366657220746f206e6f6e20455243373231526560448201527f63656976657220696d706c656d656e74657200000000000000000000000000006064820152608490fd5b01fd5b506060613f34565b7fffffffff00000000000000000000000000000000000000000000000000000000161492509050565b9091508581813d8311614030575b613ff38183612f76565b8101031261402c57517fffffffff000000000000000000000000000000000000000000000000000000008116810361402c579038613f02565b8480fd5b503d613fe9565b5050915050600190565b9293600093909291803b1561409c57948491613ef59660405180948193630a85bd0160e11b978884523360048501526001600160a01b0380921660248501526044840152608060648401528260209b8c976084830190612d83565b50505091505060019056fea264697066735822122015522fd26d82ac5287b8b6a14d2856d40da698ff96b3ba8d4f5f1052b86b432b64736f6c63430008110033a2646970667358221220a517934a7382b5a622dd360552e26517b927e9eb12568d3f30d01c2bf3aec70564736f6c63430008110033",
  "linkReferences": {},
  "deployedLinkReferences": {}
}