{
  "_format": "hh-sol-artifact-1",
  "contractName": "BikeCollection",
  "sourceName": "contracts/BikeCollection.sol",
  "abi": [
    {
      "inputs": [
        {
          "internalType": "string",
          "name": "brand",
          "type": "string"
        },
        {
          "internalType": "string",
          "name": "symbol",
          "type": "string"
        }
      ],
      "stateMutability": "nonpayable",
      "type": "constructor"
    },
    {
      "anonymous": false,
      "inputs": [
        {
          "indexed": true,
          "internalType": "address",
          "name": "owner",
          "type": "address"
        },
        {
          "indexed": true,
          "internalType": "address",
          "name": "approved",
          "type": "address"
        },
        {
          "indexed": true,
          "internalType": "uint256",
          "name": "tokenId",
          "type": "uint256"
        }
      ],
      "name": "Approval",
      "type": "event"
    },
    {
      "anonymous": false,
      "inputs": [
        {
          "indexed": true,
          "internalType": "address",
          "name": "owner",
          "type": "address"
        },
        {
          "indexed": true,
          "internalType": "address",
          "name": "operator",
          "type": "address"
        },
        {
          "indexed": false,
          "internalType": "bool",
          "name": "approved",
          "type": "bool"
        }
      ],
      "name": "ApprovalForAll",
      "type": "event"
    },
    {
      "anonymous": false,
      "inputs": [
        {
          "indexed": true,
          "internalType": "address",
          "name": "_address",
          "type": "address"
        },
        {
          "indexed": false,
          "internalType": "string",
          "name": "status",
          "type": "string"
        }
      ],
      "name": "AuthorizedMaintenance",
      "type": "event"
    },
    {
      "anonymous": false,
      "inputs": [
        {
          "indexed": true,
          "internalType": "uint256",
          "name": "id",
          "type": "uint256"
        },
        {
          "indexed": false,
          "internalType": "string",
          "name": "sale",
          "type": "string"
        },
        {
          "indexed": false,
          "internalType": "uint256",
          "name": "dateUpForSale",
          "type": "uint256"
        }
      ],
      "name": "BikeOnSale",
      "type": "event"
    },
    {
      "anonymous": false,
      "inputs": [
        {
          "indexed": true,
          "internalType": "uint256",
          "name": "id",
          "type": "uint256"
        },
        {
          "indexed": false,
          "internalType": "string",
          "name": "status",
          "type": "string"
        }
      ],
      "name": "BikeOnService",
      "type": "event"
    },
    {
      "anonymous": false,
      "inputs": [
        {
          "indexed": true,
          "internalType": "uint256",
          "name": "id",
          "type": "uint256"
        },
        {
          "indexed": true,
          "internalType": "address",
          "name": "_address",
          "type": "address"
        }
      ],
      "name": "BikeSold",
      "type": "event"
    },
    {
      "anonymous": false,
      "inputs": [
        {
          "indexed": true,
          "internalType": "uint256",
          "name": "id",
          "type": "uint256"
        },
        {
          "indexed": true,
          "internalType": "string",
          "name": "serial",
          "type": "string"
        },
        {
          "indexed": false,
          "internalType": "string",
          "name": "status",
          "type": "string"
        }
      ],
      "name": "BikeTransferedService",
      "type": "event"
    },
    {
      "anonymous": false,
      "inputs": [
        {
          "indexed": true,
          "internalType": "uint256",
          "name": "id",
          "type": "uint256"
        },
        {
          "indexed": false,
          "internalType": "uint16",
          "name": "amount",
          "type": "uint16"
        },
        {
          "components": [
            {
              "internalType": "uint256",
              "name": "id",
              "type": "uint256"
            },
            {
              "internalType": "string",
              "name": "brand",
              "type": "string"
            },
            {
              "internalType": "string",
              "name": "model",
              "type": "string"
            },
            {
              "internalType": "string",
              "name": "typeOf",
              "type": "string"
            },
            {
              "internalType": "string",
              "name": "color",
              "type": "string"
            },
            {
              "internalType": "string",
              "name": "description",
              "type": "string"
            },
            {
              "internalType": "string",
              "name": "image",
              "type": "string"
            },
            {
              "internalType": "uint16",
              "name": "buildYear",
              "type": "uint16"
            },
            {
              "internalType": "uint256",
              "name": "firstPurchaseDate",
              "type": "uint256"
            },
            {
              "internalType": "string",
              "name": "serialNumber",
              "type": "string"
            },
            {
              "internalType": "enum BikeCollection.Status",
              "name": "status",
              "type": "uint8"
            }
          ],
          "indexed": false,
          "internalType": "struct BikeCollection.Bike",
          "name": "template",
          "type": "tuple"
        }
      ],
      "name": "GroupCreated",
      "type": "event"
    },
    {
      "anonymous": false,
      "inputs": [
        {
          "indexed": true,
          "internalType": "uint256",
          "name": "id",
          "type": "uint256"
        },
        {
          "indexed": false,
          "internalType": "uint256",
          "name": "amount",
          "type": "uint256"
        }
      ],
      "name": "GroupUpdated",
      "type": "event"
    },
    {
      "anonymous": false,
      "inputs": [
        {
          "indexed": true,
          "internalType": "uint256",
          "name": "id",
          "type": "uint256"
        },
        {
          "indexed": false,
          "internalType": "string",
          "name": "store",
          "type": "string"
        },
        {
          "indexed": false,
          "internalType": "string",
          "name": "commentar",
          "type": "string"
        },
        {
          "indexed": false,
          "internalType": "uint256",
          "name": "maintenanceDate",
          "type": "uint256"
        }
      ],
      "name": "MaintenanceDone",
      "type": "event"
    },
    {
      "anonymous": false,
      "inputs": [
        {
          "indexed": true,
          "internalType": "address",
          "name": "previousOwner",
          "type": "address"
        },
        {
          "indexed": true,
          "internalType": "address",
          "name": "newOwner",
          "type": "address"
        }
      ],
      "name": "OwnershipTransferred",
      "type": "event"
    },
    {
      "anonymous": false,
      "inputs": [
        {
          "indexed": true,
          "internalType": "uint256",
          "name": "id",
          "type": "uint256"
        },
        {
          "indexed": false,
          "internalType": "string",
          "name": "stolen",
          "type": "string"
        }
      ],
      "name": "StolenBike",
      "type": "event"
    },
    {
      "anonymous": false,
      "inputs": [
        {
          "indexed": true,
          "internalType": "address",
          "name": "from",
          "type": "address"
        },
        {
          "indexed": true,
          "internalType": "address",
          "name": "to",
          "type": "address"
        },
        {
          "indexed": true,
          "internalType": "uint256",
          "name": "tokenId",
          "type": "uint256"
        }
      ],
      "name": "Transfer",
      "type": "event"
    },
    {
      "inputs": [
        {
          "internalType": "address",
          "name": "to",
          "type": "address"
        },
        {
          "internalType": "uint256",
          "name": "tokenId",
          "type": "uint256"
        }
      ],
      "name": "approve",
      "outputs": [],
      "stateMutability": "nonpayable",
      "type": "function"
    },
    {
      "inputs": [
        {
          "internalType": "address",
          "name": "owner",
          "type": "address"
        }
      ],
      "name": "balanceOf",
      "outputs": [
        {
          "internalType": "uint256",
          "name": "",
          "type": "uint256"
        }
      ],
      "stateMutability": "view",
      "type": "function"
    },
    {
      "inputs": [
        {
          "internalType": "uint16",
          "name": "amount",
          "type": "uint16"
        },
        {
          "internalType": "string",
          "name": "brand",
          "type": "string"
        },
        {
          "internalType": "string",
          "name": "model",
          "type": "string"
        },
        {
          "internalType": "string",
          "name": "typeOf",
          "type": "string"
        },
        {
          "internalType": "string",
          "name": "color",
          "type": "string"
        },
        {
          "internalType": "string",
          "name": "description",
          "type": "string"
        },
        {
          "internalType": "string",
          "name": "image",
          "type": "string"
        },
        {
          "internalType": "uint16",
          "name": "buildYear",
          "type": "uint16"
        }
      ],
      "name": "batchMint",
      "outputs": [],
      "stateMutability": "nonpayable",
      "type": "function"
    },
    {
      "inputs": [
        {
          "internalType": "address",
          "name": "from",
          "type": "address"
        },
        {
          "internalType": "address",
          "name": "to",
          "type": "address"
        },
        {
          "internalType": "uint256",
          "name": "groupId",
          "type": "uint256"
        },
        {
          "internalType": "uint16",
          "name": "amount",
          "type": "uint16"
        }
      ],
      "name": "batchTransferForSale",
      "outputs": [],
      "stateMutability": "nonpayable",
      "type": "function"
    },
    {
      "inputs": [
        {
          "internalType": "uint256",
          "name": "tokenId",
          "type": "uint256"
        }
      ],
      "name": "getApproved",
      "outputs": [
        {
          "internalType": "address",
          "name": "",
          "type": "address"
        }
      ],
      "stateMutability": "view",
      "type": "function"
    },
    {
      "inputs": [
        {
          "internalType": "uint256",
          "name": "tokenId",
          "type": "uint256"
        }
      ],
      "name": "getBike",
      "outputs": [
        {
          "components": [
            {
              "internalType": "uint256",
              "name": "id",
              "type": "uint256"
            },
            {
              "internalType": "string",
              "name": "brand",
              "type": "string"
            },
            {
              "internalType": "string",
              "name": "model",
              "type": "string"
            },
            {
              "internalType": "string",
              "name": "typeOf",
              "type": "string"
            },
            {
              "internalType": "string",
              "name": "color",
              "type": "string"
            },
            {
              "internalType": "string",
              "name": "description",
              "type": "string"
            },
            {
              "internalType": "string",
              "name": "image",
              "type": "string"
            },
            {
              "internalType": "uint16",
              "name": "buildYear",
              "type": "uint16"
            },
            {
              "internalType": "uint256",
              "name": "firstPurchaseDate",
              "type": "uint256"
            },
            {
              "internalType": "string",
              "name": "serialNumber",
              "type": "string"
            },
            {
              "internalType": "enum BikeCollection.Status",
              "name": "status",
              "type": "uint8"
            }
          ],
          "internalType": "struct BikeCollection.Bike",
          "name": "",
          "type": "tuple"
        }
      ],
      "stateMutability": "view",
      "type": "function"
    },
    {
      "inputs": [
        {
          "internalType": "uint256",
          "name": "groupId",
          "type": "uint256"
        }
      ],
      "name": "getGroupAmount",
      "outputs": [
        {
          "internalType": "uint256",
          "name": "",
          "type": "uint256"
        }
      ],
      "stateMutability": "view",
      "type": "function"
    },
    {
      "inputs": [],
      "name": "getGroupsAmount",
      "outputs": [
        {
          "internalType": "uint256",
          "name": "",
          "type": "uint256"
        }
      ],
      "stateMutability": "view",
      "type": "function"
    },
    {
      "inputs": [
        {
          "internalType": "uint256",
          "name": "tokenId",
          "type": "uint256"
        }
      ],
      "name": "getRealisedMaintenance",
      "outputs": [
        {
          "components": [
            {
              "internalType": "string",
              "name": "store",
              "type": "string"
            },
            {
              "internalType": "string",
              "name": "commentar",
              "type": "string"
            },
            {
              "internalType": "uint256",
              "name": "maintenanceDate",
              "type": "uint256"
            },
            {
              "internalType": "address",
              "name": "mainteneur",
              "type": "address"
            }
          ],
          "internalType": "struct BikeCollection.MaintenanceBook[]",
          "name": "",
          "type": "tuple[]"
        }
      ],
      "stateMutability": "view",
      "type": "function"
    },
    {
      "inputs": [
        {
          "internalType": "address",
          "name": "owner",
          "type": "address"
        },
        {
          "internalType": "address",
          "name": "operator",
          "type": "address"
        }
      ],
      "name": "isApprovedForAll",
      "outputs": [
        {
          "internalType": "bool",
          "name": "",
          "type": "bool"
        }
      ],
      "stateMutability": "view",
      "type": "function"
    },
    {
      "inputs": [
        {
          "internalType": "uint256",
          "name": "",
          "type": "uint256"
        }
      ],
      "name": "maintenance",
      "outputs": [
        {
          "internalType": "string",
          "name": "store",
          "type": "string"
        },
        {
          "internalType": "string",
          "name": "commentar",
          "type": "string"
        },
        {
          "internalType": "uint256",
          "name": "maintenanceDate",
          "type": "uint256"
        },
        {
          "internalType": "address",
          "name": "mainteneur",
          "type": "address"
        }
      ],
      "stateMutability": "view",
      "type": "function"
    },
    {
      "inputs": [],
      "name": "name",
      "outputs": [
        {
          "internalType": "string",
          "name": "",
          "type": "string"
        }
      ],
      "stateMutability": "view",
      "type": "function"
    },
    {
      "inputs": [],
      "name": "owner",
      "outputs": [
        {
          "internalType": "address",
          "name": "",
          "type": "address"
        }
      ],
      "stateMutability": "view",
      "type": "function"
    },
    {
      "inputs": [
        {
          "internalType": "uint256",
          "name": "tokenId",
          "type": "uint256"
        }
      ],
      "name": "ownerOf",
      "outputs": [
        {
          "internalType": "address",
          "name": "",
          "type": "address"
        }
      ],
      "stateMutability": "view",
      "type": "function"
    },
    {
      "inputs": [],
      "name": "renounceOwnership",
      "outputs": [],
      "stateMutability": "nonpayable",
      "type": "function"
    },
    {
      "inputs": [
        {
          "internalType": "address",
          "name": "from",
          "type": "address"
        },
        {
          "internalType": "address",
          "name": "to",
          "type": "address"
        },
        {
          "internalType": "uint256",
          "name": "tokenId",
          "type": "uint256"
        }
      ],
      "name": "safeTransferFrom",
      "outputs": [],
      "stateMutability": "nonpayable",
      "type": "function"
    },
    {
      "inputs": [
        {
          "internalType": "address",
          "name": "from",
          "type": "address"
        },
        {
          "internalType": "address",
          "name": "to",
          "type": "address"
        },
        {
          "internalType": "uint256",
          "name": "tokenId",
          "type": "uint256"
        },
        {
          "internalType": "bytes",
          "name": "data",
          "type": "bytes"
        }
      ],
      "name": "safeTransferFrom",
      "outputs": [],
      "stateMutability": "nonpayable",
      "type": "function"
    },
    {
      "inputs": [
        {
          "internalType": "address",
          "name": "operator",
          "type": "address"
        },
        {
          "internalType": "bool",
          "name": "approved",
          "type": "bool"
        }
      ],
      "name": "setApprovalForAll",
      "outputs": [],
      "stateMutability": "nonpayable",
      "type": "function"
    },
    {
      "inputs": [
        {
          "internalType": "uint256",
          "name": "tokenId",
          "type": "uint256"
        }
      ],
      "name": "setInService",
      "outputs": [],
      "stateMutability": "nonpayable",
      "type": "function"
    },
    {
      "inputs": [
        {
          "internalType": "uint256",
          "name": "tokenId",
          "type": "uint256"
        },
        {
          "internalType": "string",
          "name": "_store",
          "type": "string"
        },
        {
          "internalType": "string",
          "name": "_commentar",
          "type": "string"
        },
        {
          "internalType": "uint256",
          "name": "_maintenanceDate",
          "type": "uint256"
        },
        {
          "internalType": "address",
          "name": "_mainteneur",
          "type": "address"
        }
      ],
      "name": "setMaintenance",
      "outputs": [],
      "stateMutability": "nonpayable",
      "type": "function"
    },
    {
      "inputs": [
        {
          "internalType": "uint256",
          "name": "tokenId",
          "type": "uint256"
        },
        {
          "internalType": "address",
          "name": "maintaddr",
          "type": "address"
        }
      ],
      "name": "setMaintenanceStatus",
      "outputs": [],
      "stateMutability": "nonpayable",
      "type": "function"
    },
    {
      "inputs": [
        {
          "internalType": "uint256",
          "name": "tokenId",
          "type": "uint256"
        },
        {
          "internalType": "uint256",
          "name": "dateUpForSale",
          "type": "uint256"
        }
      ],
      "name": "setOnSale",
      "outputs": [],
      "stateMutability": "nonpayable",
      "type": "function"
    },
    {
      "inputs": [
        {
          "internalType": "uint256",
          "name": "tokenId",
          "type": "uint256"
        }
      ],
      "name": "setStolen",
      "outputs": [],
      "stateMutability": "nonpayable",
      "type": "function"
    },
    {
      "inputs": [
        {
          "internalType": "bytes4",
          "name": "interfaceId",
          "type": "bytes4"
        }
      ],
      "name": "supportsInterface",
      "outputs": [
        {
          "internalType": "bool",
          "name": "",
          "type": "bool"
        }
      ],
      "stateMutability": "view",
      "type": "function"
    },
    {
      "inputs": [],
      "name": "symbol",
      "outputs": [
        {
          "internalType": "string",
          "name": "",
          "type": "string"
        }
      ],
      "stateMutability": "view",
      "type": "function"
    },
    {
      "inputs": [
        {
          "internalType": "uint256",
          "name": "index",
          "type": "uint256"
        }
      ],
      "name": "tokenByIndex",
      "outputs": [
        {
          "internalType": "uint256",
          "name": "",
          "type": "uint256"
        }
      ],
      "stateMutability": "view",
      "type": "function"
    },
    {
      "inputs": [
        {
          "internalType": "address",
          "name": "owner",
          "type": "address"
        },
        {
          "internalType": "uint256",
          "name": "index",
          "type": "uint256"
        }
      ],
      "name": "tokenOfOwnerByIndex",
      "outputs": [
        {
          "internalType": "uint256",
          "name": "",
          "type": "uint256"
        }
      ],
      "stateMutability": "view",
      "type": "function"
    },
    {
      "inputs": [
        {
          "internalType": "uint256",
          "name": "tokenId",
          "type": "uint256"
        }
      ],
      "name": "tokenURI",
      "outputs": [
        {
          "internalType": "string",
          "name": "",
          "type": "string"
        }
      ],
      "stateMutability": "view",
      "type": "function"
    },
    {
      "inputs": [],
      "name": "totalSupply",
      "outputs": [
        {
          "internalType": "uint256",
          "name": "",
          "type": "uint256"
        }
      ],
      "stateMutability": "view",
      "type": "function"
    },
    {
      "inputs": [
        {
          "internalType": "address",
          "name": "from",
          "type": "address"
        },
        {
          "internalType": "address",
          "name": "to",
          "type": "address"
        },
        {
          "internalType": "uint256",
          "name": "tokenId",
          "type": "uint256"
        },
        {
          "internalType": "string",
          "name": "serialNumber",
          "type": "string"
        },
        {
          "internalType": "uint256",
          "name": "firstPurchaseDate",
          "type": "uint256"
        }
      ],
      "name": "transferForService",
      "outputs": [],
      "stateMutability": "nonpayable",
      "type": "function"
    },
    {
      "inputs": [
        {
          "internalType": "address",
          "name": "from",
          "type": "address"
        },
        {
          "internalType": "address",
          "name": "to",
          "type": "address"
        },
        {
          "internalType": "uint256",
          "name": "tokenId",
          "type": "uint256"
        }
      ],
      "name": "transferFrom",
      "outputs": [],
      "stateMutability": "nonpayable",
      "type": "function"
    },
    {
      "inputs": [
        {
          "internalType": "address",
          "name": "newOwner",
          "type": "address"
        }
      ],
      "name": "transferOwnership",
      "outputs": [],
      "stateMutability": "nonpayable",
      "type": "function"
    }
  ],
  "bytecode": "0x608060405234620003635762004ae7803803806200001d8162000368565b9283398101604082820312620003635781516001600160401b0392908381116200036357826200004f9183016200038e565b906020928382015185811162000363576200006b92016200038e565b9281518181116200034d576000938454916001948584811c9416801562000342575b838510146200032e578190601f94858111620002db575b508390858311600114620002775788926200026b575b5050600019600383901b1c191690851b1785555b8551928311620002575783548481811c911680156200024c575b828210146200023857828111620001f0575b50809183116001146200018a57508394829394926200017e575b5050600019600383901b1c191690821b1790555b600a8054336001600160a01b031982168117909255604051926001600160a01b03909116907f8be0079c531659141344cd1fd0a4f28419497f9722a3daafe3b4186f6b6457e09080a36146e69081620004018239f35b01519050388062000114565b90601f198316958486528286209286905b888210620001d85750508385969710620001be575b505050811b01905562000128565b015160001960f88460031b161c19169055388080620001b0565b8087859682949686015181550195019301906200019b565b8486528186208380860160051c8201928487106200022e575b0160051c019085905b82811062000222575050620000fa565b87815501859062000212565b9250819262000209565b634e487b7160e01b86526022600452602486fd5b90607f1690620000e8565b634e487b7160e01b85526041600452602485fd5b015190503880620000ba565b8880528489208894509190601f1984168a5b87828210620002c45750508411620002aa575b505050811b018555620000ce565b015160001960f88460031b161c191690553880806200029c565b8385015186558b9790950194938401930162000289565b9091508780528388208580850160051c82019286861062000324575b918991869594930160051c01915b82811062000315575050620000a4565b8a815585945089910162000305565b92508192620002f7565b634e487b7160e01b87526022600452602487fd5b93607f16936200008d565b634e487b7160e01b600052604160045260246000fd5b600080fd5b6040519190601f01601f191682016001600160401b038111838210176200034d57604052565b919080601f84011215620003635782516001600160401b0381116200034d57602090620003c4601f8201601f1916830162000368565b92818452828287010111620003635760005b818110620003ec57508260009394955001015290565b8581018301518482018401528201620003d656fe6101a080604052600436101561001457600080fd5b60003560e01c90816301ffc9a7146131ff5750806306fdde031461315c578063081812fc1461313e578063095ea7b314612faa5780630b8d27c314612e6357806318160ddd14612e4557806323b872dd14612e215780632f745c5914612d5d57806342842e0e14612d3b578063478646f714612bff5780634f6ccce714612b5e5780634f95481b1461282e5780636352211e146127ff57806363e4ab3314612650578063695c96bf146124b257806370a0823114612487578063715018a61461242c5780638da5cb5b1461240557806393031889146123d957806394b3bcc9146122ce57806395d89b41146121ef578063a22cb4651461211e578063a2cdf78314612100578063a45728d314611fbe578063aafbbe0314611e26578063b88d4fde14611da3578063c87b56dd146114fb578063e985e9c5146114a4578063f2df16b514610ed9578063f2fde38b14610e01578063fbca6ba614610cdd5763fe6d49091461018057600080fd5b34610cd857610100366003190112610cd8576004358060a05261ffff811603610cd85760243567ffffffffffffffff8111610cd8576101c39036906004016133aa565b60e05260443567ffffffffffffffff8111610cd8576101e69036906004016133aa565b909160643567ffffffffffffffff8111610cd8576102089036906004016133aa565b91909360843567ffffffffffffffff8111610cd85761022b9036906004016133aa565b91906101205260a43567ffffffffffffffff8111610cd8576102519036906004016133aa565b610180526101405267ffffffffffffffff60c43511610cd8576102793660c4356004016133aa565b6101005260c05260e4359161ffff83168303610cd85761029a969596613a32565b6001600c540180608052600c5560009633155b61ffff60a05116891015610bd9576102c3613a32565b600b9060018254018092556102de60405180610160526134df565b60006101605152610b965761031261030c8260005260026020526001600160a01b0360406000205416151590565b156143ec565b60085481600052600960205260406000205561032d816136f4565b60009861033933613d6a565b3360005260066020526040600020816000526020528260406000205582600052600760205260406000205561038761030c8360005260026020526001600160a01b0360406000205416151590565b3360005260036020526040600020600181540190558160005260026020526040600020336001600160a01b0319825416179055813360007fddf252ad1be2c89b69c2b068fc378daa952ba7f163c4a11628f55a4df523b3ef8180a46103f86103f36101605184336144a8565b61430c565b604051610404816134c2565b8281526104143660e0518a613571565b6020820152610424368588613571565b6040820152610434368a8c613571565b6060820152610447368661012051613571565b608082015261045d366101805161014051613571565b60a0820152610472366101005160c051613571565b60c082015261ffff871660e08201526000610100820152604051610495816134df565b60008152610120820152600061014082015282600052600f60205260406000209080518255602081015180519067ffffffffffffffff82116108025781906104ed826104e460018801546135c6565b6001880161372a565b602090601f8311600114610b2457600092610b19575b50508160011b916000199060031b1c19161760018301555b604081015180519067ffffffffffffffff821161080257819061054e8261054560028801546135c6565b6002880161372a565b602090601f8311600114610aa757600092610a9c575b50508160011b916000199060031b1c19161760028301555b606081015180519067ffffffffffffffff82116108025781906105af826105a660038801546135c6565b6003880161372a565b602090601f8311600114610a2a57600092610a1f575b50508160011b916000199060031b1c19161760038301555b608081015180519067ffffffffffffffff82116108025781906106108261060760048801546135c6565b6004880161372a565b602090601f83116001146109ad576000926109a2575b50508160011b916000199060031b1c19161760048301555b60a081015180519067ffffffffffffffff82116108025781906106718261066860058801546135c6565b6005880161372a565b602090601f831160011461093057600092610925575b50508160011b916000199060031b1c19161760058301555b60c081015180519067ffffffffffffffff82116108025781906106d2826106c960068801546135c6565b6006880161372a565b602090601f83116001146108b3576000926108a8575b50508160011b916000199060031b1c19161760068301555b6007820161ffff60e08301511661ffff198254161790556101008101516008830155610120810151805167ffffffffffffffff81116108025760098401916107528261074c85546135c6565b8561372a565b602090601f831160011461083957610140949392916000918361082e575b50508160011b916000199060031b1c19161790555b015190600682101561081857600a019060ff80198354169116179055608051600052601060205260406000209182549068010000000000000000821015610802576107dc826107fc9560016107f7950181556136dc565b90919082549060031b600019811b9283911b16911916179055565b613696565b976102ad565b634e487b7160e01b600052604160045260246000fd5b634e487b7160e01b600052602160045260246000fd5b015190503880610770565b908360005260206000209160005b601f19851681106108905750918391600193610140979695601f19811610610877575b505050811b019055610785565b015160001960f88460031b161c1916905538808061086a565b91926020600181928685015181550194019201610847565b0151905038806106e8565b9250600685016000526020600020906000935b601f198416851061090a576001945083601f198116106108f1575b505050811b016006830155610700565b015160001960f88460031b161c191690553880806108e1565b818101518355602094850194600190930192909101906108c6565b015190503880610687565b9250600585016000526020600020906000935b601f1984168510610987576001945083601f1981161061096e575b505050811b01600583015561069f565b015160001960f88460031b161c1916905538808061095e565b81810151835560209485019460019093019290910190610943565b015190503880610626565b9250600485016000526020600020906000935b601f1984168510610a04576001945083601f198116106109eb575b505050811b01600483015561063e565b015160001960f88460031b161c191690553880806109db565b818101518355602094850194600190930192909101906109c0565b0151905038806105c5565b9250600385016000526020600020906000935b601f1984168510610a81576001945083601f19811610610a68575b505050811b0160038301556105dd565b015160001960f88460031b161c19169055388080610a58565b81810151835560209485019460019093019290910190610a3d565b015190503880610564565b9250600285016000526020600020906000935b601f1984168510610afe576001945083601f19811610610ae5575b505050811b01600283015561057c565b015160001960f88460031b161c19169055388080610ad5565b81810151835560209485019460019093019290910190610aba565b015190503880610503565b9250600185016000526020600020906000935b601f1984168510610b7b576001945083601f19811610610b62575b505050811b01600183015561051b565b015160001960f88460031b161c19169055388080610b52565b81810151835560209485019460019093019290910190610b37565b606460405162461bcd60e51b8152602080600483015260248201527f4552433732313a206d696e7420746f20746865207a65726f20616464726573736044820152fd5b508661ffff9596610c15610c3195610c2194610c096040519b610bfb8d6134c2565b60008d5260e0513691613571565b60208c01523691613571565b60408901523691613571565b6060860152369061012051613571565b6080840152610c47366101805161014051613571565b60a0840152610c5c366101005160c051613571565b60c08401521660e08201526000610100820152604051610c7b816134df565b6000815261012082015260006101408201527f539b0d6c99718bb3b101e6805f62e0bc594b47f91bfaf8c3eb448a88d3a79c1160405161ffff60a0511681526040602082015280610cd36080519460408301906133d8565b0390a2005b600080fd5b34610cd8576020366003190112610cd857600435600d54811015610cd857600d600052604051610de49160021b610d4182610d3a817fd7b6990105719101dabeb77144f2a3385c8033acd3af97e9423a695e81ad1eb58501613600565b0383613533565b604051610d7b81610d74817fd7b6990105719101dabeb77144f2a3385c8033acd3af97e9423a695e81ad1eb68601613600565b0382613533565b610df26001600160a01b037fd7b6990105719101dabeb77144f2a3385c8033acd3af97e9423a695e81ad1eb87fd7b6990105719101dabeb77144f2a3385c8033acd3af97e9423a695e81ad1eb78501549401541691604051958695608087526080870190613324565b908582036020870152613324565b91604084015260608301520390f35b34610cd8576020366003190112610cd857610e1a613349565b610e22613a32565b6001600160a01b03809116908115610e6f57600a54826001600160a01b0319821617600a55167f8be0079c531659141344cd1fd0a4f28419497f9722a3daafe3b4186f6b6457e0600080a3005b608460405162461bcd60e51b815260206004820152602660248201527f4f776e61626c653a206e6577206f776e657220697320746865207a65726f206160448201527f64647265737300000000000000000000000000000000000000000000000000006064820152fd5b34610cd85760a0366003190112610cd85760243567ffffffffffffffff8111610cd857610f0a9036906004016135a8565b60443567ffffffffffffffff8111610cd857610f2a9036906004016135a8565b6084356001600160a01b038116809103610cd857610f68610f6360043560005260026020526001600160a01b0360406000205416151590565b61377e565b600435600052600f60205260ff600a604060002001541660068110156108185715158061147a575b80611450575b610f9f90613839565b600435600052600f60205260ff600a604060002001541660068110156108185760051480611447575b156113dd5760405190610fda826134a6565b83825282602083015260643560408301526060820152600d5468010000000000000000811015610802576001810180600d558110156113c757600d600052815180519067ffffffffffffffff821161080257819061108c826110618660021b7fd7b6990105719101dabeb77144f2a3385c8033acd3af97e9423a695e81ad1eb501546135c6565b8660021b7fd7b6990105719101dabeb77144f2a3385c8033acd3af97e9423a695e81ad1eb50161372a565b602090601f831160011461131157600092611306575b50508160011b916000199060031b1c1916178160021b7fd7b6990105719101dabeb77144f2a3385c8033acd3af97e9423a695e81ad1eb501555b7fd7b6990105719101dabeb77144f2a3385c8033acd3af97e9423a695e81ad1eb68160021b01602083015180519067ffffffffffffffff8211610802576111278261074c85546135c6565b602090601f831160011461124b577f10825ab468d040a6660a1333834256566d8b4a73a5fa26dee96873d65554e84e969461122d9694846001600160a01b03956060957fd7b6990105719101dabeb77144f2a3385c8033acd3af97e9423a695e81ad1eb895600092611240575b50508160011b916000199060031b1c19161790555b60408501517fd7b6990105719101dabeb77144f2a3385c8033acd3af97e9423a695e81ad1eb78260021b015560021b01920151166001600160a01b0319825416179055600435600052600f602052600a604060002001600260ff1982541617905561121f60405194606086526060860190613324565b908482036020860152613324565b91606435604082015280600435930390a2005b015190508c80611194565b90601f198316918460005260206000209260005b8181106112ee5750946001856060957fd7b6990105719101dabeb77144f2a3385c8033acd3af97e9423a695e81ad1eb8957f10825ab468d040a6660a1333834256566d8b4a73a5fa26dee96873d65554e84e9c9a956001600160a01b039961122d9d9b106112d5575b505050811b0190556111a9565b015160001960f88460031b161c191690558c80806112c8565b9293602060018192878601518155019501930161125f565b0151905086806110a2565b92508360021b7fd7b6990105719101dabeb77144f2a3385c8033acd3af97e9423a695e81ad1eb5016000526020600020906000935b601f19841685106113ac576001945083601f19811610611393575b505050811b018160021b7fd7b6990105719101dabeb77144f2a3385c8033acd3af97e9423a695e81ad1eb501556110dc565b015160001960f88460031b161c19169055868080611361565b81810151835560209485019460019093019290910190611346565b634e487b7160e01b600052603260045260246000fd5b608460405162461bcd60e51b815260206004820152602160248201527f4368616e67652076656c6f2073746174757320696e204d61696e74656e616e6360448201527f65000000000000000000000000000000000000000000000000000000000000006064820152fd5b50338114610fc8565b50600435600052600f60205260ff600a604060002001541660068110156108185760041415610f96565b50600435600052600f60205260ff600a604060002001541660068110156108185760011415610f90565b34610cd8576040366003190112610cd8576114bd613349565b6114c561335f565b906001600160a01b03809116600052600560205260406000209116600052602052602060ff604060002054166040519015158152f35b34610cd8576020366003190112610cd85761153661153160043560005260026020526001600160a01b0360406000205416151590565b613df4565b600435600052600f602052604060002060405190611553826134c2565b8054825260405161156b81610d748160018601613600565b60208301526040519061158582610d3a8160028501613600565b604083019182526040516115a081610d748160038601613600565b60608401526040516115b981610d748160048601613600565b6080840152604051916115da836115d38160058601613600565b0384613533565b60a0840192835261164b60ff600a60405194611604866115fd8160068501613600565b0387613533565b60c0880195865261ffff60078201541660e0890152600881015461010089015260405161163881610d748160098601613600565b610120890152015416610140860161371e565b51611657600435613c1a565b925191519361014081015160068110156108185760ff6116779116613c1a565b92309260405193611687856134fb565b602a855260403660208701378451156113c757603060208601538451600110156113c7576078602186015360295b60018111611d375750611cf3576116cd600435613c1a565b936101208401516020850151956116eb61ffff60e088015116613c1a565b926101406116fd610100890151613c1a565b97015160068110156108185761171290613884565b986040519b8c9b8c7f7b0000000000000000000000000000000000000000000000000000000000000098896020830152602182017f226e616d65223a2022000000000000000000000000000000000000000000000090528051602a819301916020019161177e92613301565b8d01602a81017f2023000000000000000000000000000000000000000000000000000000000000905281519182602c830191602001916117bd92613301565b01977f222c0000000000000000000000000000000000000000000000000000000000009889602c820152602e81017f226465736372697074696f6e223a202200000000000000000000000000000000905281519182603e8301916020019161182492613301565b0188603e820152604081017f22696d616765223a202200000000000000000000000000000000000000000000905281519182604a8301916020019161186892613301565b0187604a820152604c81017f22737461747573223a20000000000000000000000000000000000000000000009052815191826056830191602001916118ac92613301565b01605681017f2c000000000000000000000000000000000000000000000000000000000000009052605781017f2265787465726e616c5f6c696e6b223a2022687474703a2f2f62696b652d6f6e9052607781017f2d636861696e2e76657263656c2e6170702f000000000000000000000000000090528151918260898301916020019161193892613301565b0160898101602f60f81b905281519182608a8301916020019161195a92613301565b0193608a850152608c84017f2261747472696275746573223a205b0000000000000000000000000000000000905282609b850152609c84017f2274726169745f74797065223a202253657269616c206e756d626572222c000090527f2276616c7565223a202200000000000000000000000000000000000000000000938460ba8201528151918260c4830191602001916119f392613301565b01907f220000000000000000000000000000000000000000000000000000000000000080968160c48501527f7d2c000000000000000000000000000000000000000000000000000000000000938460c58201528560c782015260c881017f2274726169745f74797065223a20224272616e64222c0000000000000000000090528660de8201528151918260e883019160200191611a8f92613301565b018160e88201528360e98201528460eb82015260ec81017f2274726169745f74797065223a20224275696c642079656172222c000000000090528561010782015282519061011193828583019160200191611ae992613301565b0191820152816101128201528261011482015261011581017f2274726169745f74797065223a20224669727374207075726368617365206461905261013581017f7465222c00000000000000000000000000000000000000000000000000000000905261013981017f22646973706c61795f74797065223a202264617465222c000000000000000000905261015081017f2276616c7565223a200000000000000000000000000000000000000000000000905284519061015995828783019160200191611bb592613301565b019384015261015b83015261015c82017f22737461747573223a2022537461747573222c00000000000000000000000000905261016f82015282519061017993828583019160200191611c0792613301565b01918201527f7d000000000000000000000000000000000000000000000000000000000000008061017a83015261017b82017f5d00000000000000000000000000000000000000000000000000000000000000905261017c8201520361015d8101825261017d01611c789082613533565b611c8190613abc565b6040518091602082017f646174613a6170706c69636174696f6e2f6a736f6e3b6261736536342c000000905280519081603d84019160200191611cc392613301565b810103601d81018252603d01611cd99082613533565b60405180916020825260208201611cef91613324565b0390f35b606460405162461bcd60e51b815260206004820152602060248201527f537472696e67733a20686578206c656e67746820696e73756666696369656e746044820152fd5b906010600f821610156113c75785518210156113c7577f3031323334353637383961626364656600000000000000000000000000000000600f82161a6020838801015360041c908015611d8d57600019016116b5565b634e487b7160e01b600052601160045260246000fd5b34610cd8576080366003190112610cd857611dbc613349565b611dc461335f565b906064359060443567ffffffffffffffff8311610cd85736602384011215610cd857611e2493611e016103f3943690602481600401359101613571565b92611e14611e0f843361437e565b613e9e565b611e1f838383613f0f565b61464a565b005b34610cd857602080600319360112610cd85760043590611faa604051611e4b816134c2565b6000815260ff600a606095868685015286604085015286808501528660808501528660a08501528660c0850152600060e085015261010090600082860152610120908882870152600061014080970152611ebe610f638260005260026020526001600160a01b0360406000205416151590565b600052600f875260406000209160405198611ed88a6134c2565b83548a52604051611ef081610d748160018901613600565b898b0152604051611f0881610d748160028901613600565b60408b015260405190611f2282610d3a8160038901613600565b8a0152604051611f3981610d748160048801613600565b60808a0152604051611f5281610d748160058801613600565b60a08a0152604051611f6b81610d748160068801613600565b60c08a015261ffff60078401541660e08a015260088301549089015260405190611f9c82610d3a8160098701613600565b88015201541690840161371e565b611cef6040519282849384528301906133d8565b34610cd8576040366003190112610cd857600435611fda61335f565b90611ffe610f638260005260026020526001600160a01b0360406000205416151590565b61201061200b823361437e565b6137c9565b80600052602091600f835260ff600a60406000200154166006811015610818571515806120d9575b806120b0575b907fac323254ea442cd352a667fb8032ed04cce3acd1fd208772e069248bb8c0b6fb926120726001600160a01b0393613839565b6000908152600f855260409020600a01805460ff19166005908117909155610cd39061209d90613884565b6040519384938785521695830190613324565b5081600052600f835260ff600a604060002001541690600682101561081857906004141561203e565b5081600052600f835260ff600a604060002001541660068110156108185760011415612038565b34610cd8576000366003190112610cd8576020600c54604051908152f35b34610cd8576040366003190112610cd857612137613349565b60243590811515809203610cd8576001600160a01b0316908133146121ab57336000526005602052604060002082600052602052604060002060ff1981541660ff83161790556040519081527f17307eab39ab6107e8899845ad3d59bd9653f200f220920489ca2b5937696c3160203392a3005b606460405162461bcd60e51b815260206004820152601960248201527f4552433732313a20617070726f766520746f2063616c6c6572000000000000006044820152fd5b34610cd8576000366003190112610cd85760405160006001805490612213826135c6565b808552918181169081156122a7575060011461224e575b611cef8461223a81860382613533565b604051918291602083526020830190613324565b600081815292507fb10e2d527612073b26eecdfd717e6a320cf44b4afac2b0732d9fcbe2b7fa0cf65b82841061228f57505050810160200161223a8261222a565b80546020858701810191909152909301928101612277565b60ff191660208087019190915292151560051b8501909201925061223a915083905061222a565b34610cd857602080600319360112610cd85760043590612307610f638360005260026020526001600160a01b0360406000205416151590565b61231461200b833361437e565b81600052600f815260ff600a604060002001541660068110156108185715612395576000828152600f825260409020600a01805460ff191660029081179091557f24ab1ef75ba571a21969207cb2b99a8967e2c38430906243724b0fe8ef64ff7e919061238090613884565b90610cd3604051928284938452830190613324565b6064906040519062461bcd60e51b82526004820152601960248201527f4e6f7420616c6c6f7765642c2062696b65206f6e2049646c65000000000000006044820152fd5b34610cd8576020366003190112610cd85760043560005260106020526020604060002054604051908152f35b34610cd8576000366003190112610cd85760206001600160a01b03600a5416604051908152f35b34610cd8576000366003190112610cd857612445613a32565b60006001600160a01b03600a546001600160a01b03198116600a55167f8be0079c531659141344cd1fd0a4f28419497f9722a3daafe3b4186f6b6457e08280a3005b34610cd8576020366003190112610cd85760206124aa6124a5613349565b613d6a565b604051908152f35b34610cd857602080600319360112610cd8576124e9610f6360043560005260026020526001600160a01b0360406000205416151590565b600d5467ffffffffffffffff811161080257906040519161250f828260051b0184613533565b8083528183019081600d6000527fd7b6990105719101dabeb77144f2a3385c8033acd3af97e9423a695e81ad1eb56000915b8383106125e35750505050604051918083019381845251809452604083019360408160051b85010192916000955b82871061257c5785850386f35b909192938280600192603f198982030185528751906125b66125a683516080808552840190613324565b8484015183820386850152613324565b91604081015160408301526001600160a01b0360608092015116910152960192019601959291909261256f565b6004866001926040999899516125f8816134a6565b60405161260981610d74818a613600565b815260405161261e81610d7481898b01613600565b83820152600286015460408201526001600160a01b036003870154166060820152815201920192019190959495612541565b34610cd8576080366003190112610cd857612669613349565b61267161335f565b906044359060643561ffff8116809103610cd85761268d613a32565b8260005260109360209285845260406000205483116127bb5760005b8381106126e957857f65659fbf3bab178ce96dcb4ea95ba3900cae36f9426e9920b7940995f62b06bf8689836000528152604060002054604051908152a2005b6000868152878652604090208054600019929190838101908111611d8d57612710916136dc565b929054600393841b1c928860005289885260406000209384549182156127a5576127a095846107f7956103f395019261274984846136dc565b81939154921b1b191690555580600052600f8952600a604060002001600160ff198254161790556040519061277d826134df565b6000825261278e611e0f823361437e565b612799818989613f0f565b878761464a565b6126a9565b634e487b7160e01b600052603160045260246000fd5b6064846040519062461bcd60e51b82526004820152601160248201527f416d6f756e7420746f6f206869676865720000000000000000000000000000006044820152fd5b34610cd8576020366003190112610cd857602061281d600435613e3f565b6001600160a01b0360405191168152f35b34610cd85760a0366003190112610cd857612847613349565b61284f61335f565b906044356064359267ffffffffffffffff93848111610cd8576128769036906004016133aa565b909161289b610f638560005260026020526001600160a01b0360406000205416151590565b6128a861200b853361437e565b83600052602095600f875260ff600a60406000200154166006811015610818576001809103612b1a5760405188810189815285604083015285876060840137600060608784010152601f199161291060608285601f8b01168101036040810184520182613533565b5190206040518a8101908b82526000604082015260408152612931816134fb565b51902014612ad6576000878152600f8a52604090206084356008820155600901928511610802576129668561074c85546135c6565b600090601f8611600114612a4b5750956129f7936103f3938680849b957f840772e4ccc603ecc25688df05b0bf5d5ce14df2c1466dc930a6cdf57410f7af9b600093612a40575b501b906000198960031b1c19161790555b81600052600f8a52600a604060002001600260ff19825416179055604051926129e6846134df565b60008452611e14611e0f843361437e565b83600052600f8552612a1360ff600a6040600020015416613884565b9181604051928392833781016000815203902093612a3b604051928284938452830190613324565b0390a3005b8b013592508e6129ad565b85169083600052896000209160005b8b828210612ac2575050938899937f840772e4ccc603ecc25688df05b0bf5d5ce14df2c1466dc930a6cdf57410f7af99936129f79793896103f39810612aa8575b505087811b0190556129be565b8a013560001960038b901b60f8161c191690558c80612a9b565b898401358555938501939283019201612a5a565b6064896040519062461bcd60e51b82526004820152600860248201527f534e20656d7074790000000000000000000000000000000000000000000000006044820152fd5b6064886040519062461bcd60e51b82526004820152600b60248201527f4e6f74206f6e2073616c650000000000000000000000000000000000000000006044820152fd5b34610cd8576020366003190112610cd857600435600854811015612b9557612b876020916136a5565b90546040519160031b1c8152f35b608460405162461bcd60e51b815260206004820152602c60248201527f455243373231456e756d657261626c653a20676c6f62616c20696e646578206f60448201527f7574206f6620626f756e647300000000000000000000000000000000000000006064820152fd5b34610cd857602080600319360112610cd85760043590612c38610f638360005260026020526001600160a01b0360406000205416151590565b612c4561200b833361437e565b81600052600f815260ff600a6040600020015416600681101561081857151580612d14575b80612ced575b7f96beb34c3dbedef6829ea4f0bd1502174f935175f94a0aa34519a6aded43dd9191612c9d606092613839565b83600052600f8152600a604060002001600460ff198254161790556017604051918083528201527f62696b65206973206465636c617265642073746f6c656e0000000000000000006040820152a2005b5081600052600f815260ff600a604060002001541660068110156108185760041415612c70565b5081600052600f815260ff600a604060002001541660068110156108185760011415612c6a565b34610cd857611e246103f3612d4f36613375565b90604051926129e6846134df565b34610cd8576040366003190112610cd857612d76613349565b60243590612d8381613d6a565b821015612db7576001600160a01b031660005260066020526040600020906000526020526020604060002054604051908152f35b608460405162461bcd60e51b815260206004820152602b60248201527f455243373231456e756d657261626c653a206f776e657220696e646578206f7560448201527f74206f6620626f756e64730000000000000000000000000000000000000000006064820152fd5b34610cd857611e24612e3236613375565b91612e40611e0f843361437e565b613f0f565b34610cd8576000366003190112610cd8576020600854604051908152f35b34610cd8576040366003190112610cd857600435612e9a610f638260005260026020526001600160a01b0360406000205416151590565b612ea761200b823361437e565b80600052600f60205260ff600a6040600020015416600681101561081857151580612f82575b80612f5a575b612edc90613839565b80600052600f602052600a604060002001600160ff198254161790557f85e6b52d3a1cb0c8567ae9ee9d9cf2b87bdafa1e444017f6317c231f447e371a608060405160408152600660408201527f4f6e53616c65000000000000000000000000000000000000000000000000000060608201526024356020820152a2005b5080600052600f60205260ff600a604060002001541660068110156108185760041415612ed3565b5080600052600f60205260ff600a604060002001541660068110156108185760011415612ecd565b34610cd8576040366003190112610cd857612fc3613349565b602435906001600160a01b038080612fda85613e3f565b169216918083146130d4578033149081156130af575b5015613045578260005260046020526040600020826001600160a01b031982541617905561301d83613e3f565b167f8c5be1e5ebec7d5bd14f71427d1e84f3dd0314c0f7b2291e5b200ac8c7c3b925600080a4005b608460405162461bcd60e51b815260206004820152603d60248201527f4552433732313a20617070726f76652063616c6c6572206973206e6f7420746f60448201527f6b656e206f776e6572206f7220617070726f76656420666f7220616c6c0000006064820152fd5b9050600052600560205260406000203360005260205260ff6040600020541684612ff0565b608460405162461bcd60e51b815260206004820152602160248201527f4552433732313a20617070726f76616c20746f2063757272656e74206f776e6560448201527f72000000000000000000000000000000000000000000000000000000000000006064820152fd5b34610cd8576020366003190112610cd857602061281d600435613e61565b34610cd8576000366003190112610cd8576040516000805461317d816135c6565b808452906001908181169081156122a757506001146131a657611cef8461223a81860382613533565b600080805292507f290decd9548b62a8d60345a988386fc84ba6bc95484008f6362f93160ef3e5635b8284106131e757505050810160200161223a8261222a565b805460208587018101919091529093019281016131cf565b34610cd8576020366003190112610cd857600435907fffffffff000000000000000000000000000000000000000000000000000000008216809203610cd857817f780e9d630000000000000000000000000000000000000000000000000000000060209314908115613273575b5015158152f35b7f80ac58cd000000000000000000000000000000000000000000000000000000008114915081156132d7575b81156132ad575b508361326c565b7f01ffc9a700000000000000000000000000000000000000000000000000000000915014836132a6565b7f5b5e139f000000000000000000000000000000000000000000000000000000008114915061329f565b60005b8381106133145750506000910152565b8181015183820152602001613304565b9060209161333d81518092818552858086019101613301565b601f01601f1916010190565b600435906001600160a01b0382168203610cd857565b602435906001600160a01b0382168203610cd857565b6060906003190112610cd8576001600160a01b03906004358281168103610cd857916024359081168103610cd8579060443590565b9181601f84011215610cd85782359167ffffffffffffffff8311610cd85760208381860195010111610cd857565b908151815261348f61346261345061343e61342c61341a61340860208901516101608060208b0152890190613324565b604089015188820360408a0152613324565b60608801518782036060890152613324565b60808701518682036080880152613324565b60a086015185820360a0870152613324565b60c085015184820360c0860152613324565b61ffff60e08501511660e08401526101008085015190840152610120808501519084830390850152613324565b916101408091015191600683101561081857015290565b6080810190811067ffffffffffffffff82111761080257604052565b610160810190811067ffffffffffffffff82111761080257604052565b6020810190811067ffffffffffffffff82111761080257604052565b6060810190811067ffffffffffffffff82111761080257604052565b6040810190811067ffffffffffffffff82111761080257604052565b90601f8019910116810190811067ffffffffffffffff82111761080257604052565b67ffffffffffffffff811161080257601f01601f191660200190565b92919261357d82613555565b9161358b6040519384613533565b829481845281830111610cd8578281602093846000960137010152565b9080601f83011215610cd8578160206135c393359101613571565b90565b90600182811c921680156135f6575b60208310146135e057565b634e487b7160e01b600052602260045260246000fd5b91607f16916135d5565b9060009291805491613611836135c6565b9182825260019384811690816000146136735750600114613633575b50505050565b90919394506000526020928360002092846000945b83861061365f57505050500101903880808061362d565b805485870183015294019385908201613648565b9294505050602093945060ff191683830152151560051b0101903880808061362d565b6000198114611d8d5760010190565b6008548110156113c75760086000527ff3f7a9fe364faab93b216da50a3214154f22a0a2b415b23a84c8169e8b636ee30190600090565b80548210156113c75760005260206000200190600090565b6008549068010000000000000000821015610802576107dc82600161371c94016008556136a5565b565b60068210156108185752565b90601f811161373857505050565b600091825260208220906020601f850160051c83019410613774575b601f0160051c01915b82811061376957505050565b81815560010161375d565b9092508290613754565b1561378557565b606460405162461bcd60e51b815260206004820152601260248201527f42696b6520646f65736e277420657869737400000000000000000000000000006044820152fd5b156137d057565b608460405162461bcd60e51b8152602060048201526024808201527f43616c6c6572206973206e6f742062696b65206f776e6572206f72206170707260448201527f6f766564000000000000000000000000000000000000000000000000000000006064820152fd5b1561384057565b606460405162461bcd60e51b815260206004820152600b60248201527f4e6f7420616c6c6f7765640000000000000000000000000000000000000000006044820152fd5b60068110156108185780156139f857600181146139be5760028114613984576003811461394a5760048114613910576005146138d7576040516138c681613517565b60018152602f60f81b602082015290565b6040516138e381613517565b600e81527f4f6e204d61696e74656e616e6365000000000000000000000000000000000000602082015290565b5060405161391d81613517565b600681527f53746f6c656e0000000000000000000000000000000000000000000000000000602082015290565b5060405161395781613517565b600e81527f4f7574206f662073657276696365000000000000000000000000000000000000602082015290565b5060405161399181613517565b600a81527f496e207365727669636500000000000000000000000000000000000000000000602082015290565b506040516139cb81613517565b600781527f4f6e2073616c6500000000000000000000000000000000000000000000000000602082015290565b50604051613a0581613517565b600481527f49646c6500000000000000000000000000000000000000000000000000000000602082015290565b6001600160a01b03600a54163303613a4657565b606460405162461bcd60e51b815260206004820152602060248201527f4f776e61626c653a2063616c6c6572206973206e6f7420746865206f776e65726044820152fd5b90613a9482613555565b613aa16040519182613533565b8281528092613ab2601f1991613555565b0190602036910137565b805115613c0657604051613acf816134fb565b604081527f4142434445464748494a4b4c4d4e4f505152535455565758595a61626364656660208201527f6768696a6b6c6d6e6f707172737475767778797a303132333435363738392b2f60408201528151600292838201809211611d8d5760038092047f3fffffffffffffffffffffffffffffffffffffffffffffffffffffffffffffff81168103611d8d57613b69908594951b613a8a565b936020850193829183518401925b838110613bb55750505050510680600114613ba257600214613b97575090565b603d90600019015390565b50603d9081600019820153600119015390565b85600491979293949701918251600190603f9082828260121c16880101518453828282600c1c16880101518385015382828260061c1688010151888501531685010151878201530195929190613b77565b50604051613c13816134df565b6000815290565b806000917a184f03e93ff9f4daa797ed6e38ed64bf6a1f01000000000000000080821015613d5c575b506d04ee2d6d415b85acef810000000080831015613d4d575b50662386f26fc1000080831015613d3e575b506305f5e10080831015613d2f575b5061271080831015613d20575b506064821015613d10575b600a80921015613d06575b600190816021613cb1828701613a8a565b95860101905b613cc3575b5050505090565b600019019083907f30313233343536373839616263646566000000000000000000000000000000008282061a835304918215613d0157919082613cb7565b613cbc565b9160010191613ca0565b9190606460029104910191613c95565b60049193920491019138613c8a565b60089193920491019138613c7d565b60109193920491019138613c6e565b60209193920491019138613c5c565b604093508104915038613c43565b6001600160a01b03168015613d8a57600052600360205260406000205490565b608460405162461bcd60e51b815260206004820152602960248201527f4552433732313a2061646472657373207a65726f206973206e6f74206120766160448201527f6c6964206f776e657200000000000000000000000000000000000000000000006064820152fd5b15613dfb57565b606460405162461bcd60e51b815260206004820152601860248201527f4552433732313a20696e76616c696420746f6b656e20494400000000000000006044820152fd5b60005260026020526001600160a01b03604060002054166135c3811515613df4565b613e846115318260005260026020526001600160a01b0360406000205416151590565b60005260046020526001600160a01b036040600020541690565b15613ea557565b608460405162461bcd60e51b815260206004820152602d60248201527f4552433732313a2063616c6c6572206973206e6f7420746f6b656e206f776e6560448201527f72206f7220617070726f766564000000000000000000000000000000000000006064820152fd5b919060008281526020600f815260409260ff600a858520015416600690818110156142b557156142c957858452600f835260ff600a868620015416818110156142b5576002036142ae57858452600f83526009858520018551613f8d81613f7f878201948886528a830190613600565b03601f198101835282613533565b5190208551848101908582528688820152878152613faa816134fb565b51902014155b1561426b5790613fdc9291613fc487613e3f565b6001600160a01b038981169590939184168614614437565b82811698891561420357918593918a95938a97156000146140f257508486937f39c42552c5dd2efe63a1f4ad4dc1a8884d553e7ff3db60a0831d40c36892904d9a93614053936008548b8d5260098952868d20556140398b6136f4565b8387036140c4575b505061404c89613e3f565b1614614437565b858752600483526002818820936001600160a01b03199485815416905585895260038152828920600019815401905583895282892060018154019055878952528620918254161790557fddf252ad1be2c89b69c2b068fc378daa952ba7f163c4a11628f55a4df523b3ef8480a480a3565b6140cd90613d6a565b90868c528752848b20818c52875289858c2055898b5260078752848b20553880614041565b86860361412a575b508486937f39c42552c5dd2efe63a1f4ad4dc1a8884d553e7ff3db60a0831d40c36892904d9a9361405393614039565b9092949798955061413d91939650613d6a565b60001981019081116141ef5793614053878998958b98958d989589968b7f39c42552c5dd2efe63a1f4ad4dc1a8884d553e7ff3db60a0831d40c36892904d9e52600789528c8780822054918383036141ba575b90508d9150528c87812055848d52828952868d20908d5288528b868120559350939a5093506140fa565b878152858c528181208482528c5281812054888252868d528282208483528d528083832055815260078c52205538878e614190565b602488634e487b7160e01b81526011600452fd5b60848589519062461bcd60e51b825260048201526024808201527f4552433732313a207472616e7366657220746f20746865207a65726f2061646460448201527f72657373000000000000000000000000000000000000000000000000000000006064820152fd5b60648386519062461bcd60e51b82526004820152601760248201527f43616c6c207472616e73666572466f72536572766963650000000000000000006044820152fd5b6001613fb0565b602485634e487b7160e01b81526021600452fd5b60648386519062461bcd60e51b82526004820152600960248201527f49646c65206d6f646500000000000000000000000000000000000000000000006044820152fd5b1561431357565b60405162461bcd60e51b815260206004820152603260248201527f4552433732313a207472616e7366657220746f206e6f6e20455243373231526560448201527f63656976657220696d706c656d656e74657200000000000000000000000000006064820152608490fd5b906001600160a01b03808061439284613e3f565b169316918383149384156143c5575b5083156143af575b50505090565b6143bb91929350613e61565b16143880806143a9565b909350600052600560205260406000208260005260205260ff6040600020541692386143a1565b156143f357565b606460405162461bcd60e51b815260206004820152601c60248201527f4552433732313a20746f6b656e20616c7265616479206d696e746564000000006044820152fd5b1561443e57565b608460405162461bcd60e51b815260206004820152602560248201527f4552433732313a207472616e736665722066726f6d20696e636f72726563742060448201527f6f776e65720000000000000000000000000000000000000000000000000000006064820152fd5b9192600092909190803b15614640576144fe946040518092630a85bd0160e11b9485835233600484015287602484015260448301526080606483015281876001600160a01b038260209b8c976084830190613324565b0393165af18491816145e4575b506145bb575050503d6000146145b3573d61452581613555565b906145336040519283613533565b81528091833d92013e5b805191826145b05760405162461bcd60e51b815260206004820152603260248201527f4552433732313a207472616e7366657220746f206e6f6e20455243373231526560448201527f63656976657220696d706c656d656e74657200000000000000000000000000006064820152608490fd5b01fd5b50606061453d565b7fffffffff00000000000000000000000000000000000000000000000000000000161492509050565b9091508581813d8311614639575b6145fc8183613533565b8101031261463557517fffffffff000000000000000000000000000000000000000000000000000000008116810361463557903861450b565b8480fd5b503d6145f2565b5050915050600190565b9293600093909291803b156146a5579484916144fe9660405180948193630a85bd0160e11b978884523360048501526001600160a01b0380921660248501526044840152608060648401528260209b8c976084830190613324565b50505091505060019056fea2646970667358221220f566e7f023d544d65d722eafb59f218ffb68ad68a67babd871cfbf698e32518664736f6c63430008110033",
  "linkReferences": {},
  "deployedLinkReferences": {}
}